:020000040800F2
:10000000500B002029020008B5300008652C0008BC
:10001000B13000089F0400081D3A000800000000ED
:10002000000000000000000000000000A9310008EE
:10003000270600080000000009310008AB31000865
:10004000430200084302000843020008430200087C
:10005000430200084302000843020008430200086C
:10006000430200084302000843020008430200085C
:100070005505000843020008430200084302000837
:10008000430200084302000843020008430200083C
:10009000A5040008430200084302000843020008C8
:1000A000430200084302000843020008430200081C
:1000B000430200084302000843020008430200080C
:1000C00043020008430200084302000843020008FC
:1000D00043020008E938000843020008F938000824
:1000E00043020008430200084302000843020008DC
:1000F00043020008430200084302000843020008CC
:1001000043020008430200084302000843020008BB
:1001100043020008430200084302000843020008AB
:10012000430200084302000843020008430200089B
:10013000430200084302000843020008430200088B
:10014000430200084302000843020008430200087B
:100150004302000843020008650500084302000846
:10016000430200084302000843020008430200085B
:100170004302000843020008430200080000000098
:10018000430200084302000800F002F800F03CF8C7
:100190000AA090E8000C82448344AAF10107DA45E2
:1001A00001D100F031F8AFF2090EBAE80F0013F0F8
:1001B000010F18BFFB1A43F001031847A44A0000BF
:1001C000C44A0000103A24BF78C878C1FAD8520750
:1001D00024BF30C830C144BF04680C6070470000C1
:1001E0000023002400250026103A28BF78C1FBD840
:1001F000520728BF30C148BF0B6070471FB504F0DD
:1002000017FD1FBD10B510BD00F00FF91146FFF727
:10021000F5FF03F089FC00F02DF903B4FFF7F2FFBE
:1002200003BC00F035F90000094880470948004741
:10023000FEE7FEE7FEE7FEE7FEE7FEE7FEE7FEE796
:10024000FEE7FEE704480549054A064B70470000F3
:10025000693200088901000850050020500B002079
:10026000500700205007002053EA020C00F069807C
:100270002DE9F04B4FF00006002B1FBFB3FA83F5BA
:1002800003FA05F424FA05F65E4012BF1643B2FAEB
:1002900082F502FA05F4C5F120051EBF22FA05FC1D
:1002A00044EA0C04203556EA044C4FEA144418BFC3
:1002B000641C4FF000084FF00009904271EB030CF2
:1002C00039D3002919BFB1FA81F701FA07F6B0FA5C
:1002D00080F700FA07F6C7F120071EBF20FA07FCD7
:1002E00046EA0C062037B6FBF4FCA7EB0507103FE7
:1002F00007F01F0BCBF120060CFA0BFB2CFA06F6CD
:1003000044BFB3460026202FA4BF5E464FF0000B2B
:100310005BEA060C08BF4FF0010B19EB0B09ABFBB6
:10032000027C48EB0608C01B06FB02CC0BFB03CC8F
:1003300071EB0C01C1E70B46024641464846BDE859
:10034000F08B13B54FF000004FF00001AFF30080C9
:10035000BDE81C4070474FF0000200B513469446BC
:100360009646203922BFA0E80C50A0E80C50B1F10D
:100370002001BFF4F7AF090728BFA0E80C5048BF21
:100380000CC05DF804EB890028BF40F8042B08BFBF
:10039000704748BF20F8022B11F0804F18BF00F8BB
:1003A000012B70474FF0013C50F8042B51F8043BEF
:1003B0009A4221D1A2EB0C03934313EACC1317D139
:1003C00050F8042B51F8043B9A4215D1A2EB0C03D0
:1003D000934313EACC130BD150F8042B51F8043B90
:1003E0009A4209D1A2EB0C03934313EACC13DBD05E
:1003F0004FF00000704700BFD01A01BAB1FA81F186
:1004000001F0180122FA01F0CB40C1F12001DBB26A
:10041000C0B2C01A2CFA01F3D11A914311EAC311E8
:10042000E6D17047704770477047754600F02CF86A
:10043000AE4605006946534620F00700854618B0D1
:1004400020B5FFF7FFFEBDE820404FF000064FF05B
:1004500000074FF000084FF0000B21F00701AC46F9
:10046000ACE8C009ACE8C009ACE8C009ACE8C00918
:100470008D46704710B50446AFF300802046BDE8B6
:100480001040FFF7CABE000000487047F00400208B
:1004900001491820ABBEFEE726000200704700BFEE
:1004A000FEE7000010B5024800F0A1FA10BD000000
:1004B00090020020F8B507460C4615461E464FF43C
:1004C00000700D49086000208860C860082008613D
:1004D000380A0A4908704F70200A8870CC70280AC0
:1004E00008714D71300A8871CE716B460A46024917
:1004F000034800F0AEF8F8BD5400002004000020CE
:1005000090020020F8B507460C4615461E4640F2FC
:10051000FF100D49086000208860C860082008614D
:10052000380A0A4908704F70200A8870CC70280A6F
:1005300008714D71300A8871CE716B460A460249C6
:10054000034800F086F8F8BD5400002004000020A5
:100550009002002010B5024800F0B6FD10BD00006A
:100560003004002010B5024800F0AEFD10BD0000C0
:10057000D003002001680A4BCAB2103AA3FB023232
:100580001209084B9B5CC365032A04D96FF3090168
:10059000091D816502E06FF309018165806D704777
:1005A000ABAAAAAA404C0008014600208A6A8B69BF
:1005B000002B0FD0B3F5005F1DD08AB3012A30D0D5
:1005C000022A2ED0032A04D1C96A11F0807F00D0FC
:1005D000012070471AB1012A07D0022AF9D1C96A4D
:1005E00011F0807FF5D001207047C96AB1F1C07F5A
:1005F000FAD1012070475AB1012A0BD0022A07D044
:10060000032AF7D1C96AB1F1C07FF3D10120704745
:1006100001207047C96A11F0807FFAD0012070472D
:10062000FFE701207047704772B600BFFEE790F801
:100630002020012A07D0022A05D0416A41F48021F6
:100640004162012070470068426911434161002006
:10065000704770B490F82040D0F800C0DCF808C0B3
:10066000012C08D0022C06D0416A41F4802141625D
:1006700070BC012070470CF080640CF000652C43C6
:1006800002D11CF0805F5FD0CCF3016CBCF1020F93
:1006900006D9416A41F40001416270BC01207047F3
:1006A000012404FA0CF41C608B684FF4C0749BB1F5
:1006B000CD6804EB0C162B434D6843EAC50305686F
:1006C000AB514FF4C273066803EB0C130D69F55080
:1006D000097D012909D00DE00D88CB6804EB0C16CB
:1006E00043EA45530568AB51EBE70168CD5845F443
:1006F0008075CD501179D379557941EA03619379A9
:100700001B0443EA052319434FF4C675036805EB40
:100710000C1559511178D37841EA036193785278D6
:100720001B0443EA022211434FF4C473026803EB33
:100730000C13D150016804EB0C100A5842F001026E
:100740000A5070BC00207047416A41F400114162B8
:1007500070BC01207047000090F82020012A07D0CB
:10076000022A05D0416A41F480214162012070478C
:100770004248D0F8002242F00102C0F80022D0F82E
:10078000002222F47C52C0F80022D0F800224B6AEA
:1007900042EA0322C0F800220A7D012302F01F0270
:1007A00003FA02F2D0F81C329343C0F81C32CB6932
:1007B000D3B9D0F80C329343C0F80C32B1F80CC066
:1007C0004B686CF31F43D1F814C000EBCC0CCCF891
:1007D0004032B1F808C00B686CF31F43D1F814C065
:1007E00000EBCC0CCCF84432CB69012B1AD1D0F8F9
:1007F0000C321343C0F80C32B1F800C04B686CF3F4
:100800001F43D1F814C000EBCC0CCCF84032B1F847
:1008100008C0CB686CF31F43D1F814C000EBCC0CBC
:10082000CCF844328B697BB1D0F804321343C0F862
:1008300004320B6973B1D0F814321343C0F8143288
:10084000096A01290CD010E0D0F804329343C0F8B3
:100850000432EEE7D0F814329343C0F81432EFE7D5
:10086000D0F81C121143C0F81C12D0F8001221F06D
:100870000101C0F800120020704700000064004031
:10088000704710B490F820C0BCF1010F09D0BCF142
:10089000020F06D0416A41F48021416210BC012060
:1008A000704739B1D0F800C0DCF810C01CF0030F5D
:1008B0007DD006E0D0F800C0DCF80CC01CF0030FBF
:1008C0007BD04FF4D87C04680CEB011C54F80C402E
:1008D00004F004049460002C7DD0046854F80C40AB
:1008E000E4085460046854F80CC00CF0020CC2F820
:1008F0000CC04FF4DA7C04680CEB011C54F80C407B
:1009000004F00F041461046854F80C40C4F3072485
:100910009461046854F80CC04FEA1C4CC2F814C02F
:100920004FF4DC72D0F800C002EB01125CF802C098
:1009300083F800C0D0F800C05CF802C04FEA1C2C5D
:1009400083F801C0D0F800C05CF802C04FEA1C4C2C
:1009500083F802C0D0F800C05CF80220120EDA70F2
:100960004FF4DE72D0F800C002EB01125CF802C056
:1009700083F804C0D0F800C05CF802C04FEA1C2C19
:1009800083F805C0D0F800C05CF802C04FEA1C4CE8
:1009900083F806C0D0F800C05CF80220120EDA71AD
:1009A000F9B10068016941F02001016102E00BE04A
:1009B00003E010E010BC00207047416A41F40011D0
:1009C000416210BC01207047416A41F4001141624C
:1009D00010BC01207047046854F80C40640D14608A
:1009E00080E70068C16841F02001C160DEE72DE9C1
:1009F000F05F0546002428684669D0F804908768AF
:100A0000D0F80CA0D0F810B0D0F8188016F0010F74
:100A100054D017F0010F17D00121816017F0020F99
:100A200003D0284600F0E6FA0EE017F0040F02D0DB
:100A30004FF4006408E017F0080F02D04FF4805420
:100A400002E0284600F0D5FA17F4807F19D0296813
:100A50004FF48070886017F4007F03D0284600F0C0
:100A6000CBFA0EE017F4806F02D044F4005408E093
:100A700017F4006F02D044F4804402E0284600F0EE
:100A8000BAFA17F4803F19D029684FF48030886093
:100A900017F4003F03D0284600F0B0FA0EE017F438
:100AA000802F02D044F4004408E017F4002F02D055
:100AB00044F4803402E0284600F09FFA16F0080F54
:100AC00007D01AF0100F04D044F4007429681020E5
:100AD000C86016F0040F4FF0080707D01AF0080F8F
:100AE00004D02868C760284600F09CF916F0020F71
:100AF00007D02868C06810F0030F02D0284600F025
:100B000093F916F0400F07D01BF0100F04D044F4F7
:100B1000806429681020086116F0200F07D01BF0B0
:100B2000080F04D028680761284600F02DFA16F057
:100B3000100F07D02868006910F0030F02D0284674
:100B400000F023FA16F4003F08D019F0100F05D07A
:100B5000296810204860284600F018FA16F4803FF3
:100B600007D019F0080F04D028684760284600F025
:100B700046FA16F4004F4AD019F0040F44D016F488
:100B8000807F04D018F0010F01D044F0010416F466
:100B9000007F04D018F0020F01D044F0020416F4D4
:100BA000806F04D018F0040F01D044F0040416F450
:100BB000006F29D018F0700F26D008F07000402880
:100BC00015D006DC102809D020280AD0302816D1EC
:100BD0000AE050280ED0602811D10EE044F008043D
:100BE0000DE044F010040AE044F0200407E044F073
:100BF000400404E044F0800401E044F48074286878
:100C0000816921F070018161296804204860002C0D
:100C100005D0686A204368622846FFF731FEBDE8C8
:100C2000F09F70B50446002C03D094F8200010B15A
:100C300004E0012070BD204600F0A8F8206801689B
:100C400041F00101016000F0DFFC054620684068CA
:100C50004FF0050610F0010F11D100F0D5FC401B3C
:100C60000A2807D9606A40F40030606284F8206086
:100C7000012070BD2068406810F0010FEDD02068A1
:100C8000016821F00201016000F0BEFC0546206809
:100C9000406810F0020F11D000F0B6FC401B0A288B
:100CA00007D9606A40F40030606284F82060012057
:100CB00070BD2068406810F0020FEDD1207E012841
:100CC0003FD02068016821F080010160607E01282A
:100CD0003DD02068016821F040010160A07E01281C
:100CE0003BD02068016821F020010160E07E0128EE
:100CF00039D02068016841F010010160207F01288F
:100D000037D02068016821F008010160607F012868
:100D100035D02068016821F004010160E168A06815
:100D2000626908432169114308436168491E084309
:100D30002168C86100206062012084F82000002042
:100D400070BD2068016841F080010160BEE7206845
:100D5000016841F040010160C0E72068016841F08E
:100D600020010160C2E72068016821F010010160E4
:100D7000C4E72068016841F008010160C6E7206807
:100D8000016841F004010160C8E7000010B586B0B9
:100D90000446142101A8FFF7DEFA1F4920688842A3
:100DA00037D100BF002000901C48006840F0007060
:100DB0001A4908600846006800F00070009000BF03
:100DC00000BF00BF0020009014481038006840F0B9
:100DD00008001249103908600846006800F0080051
:100DE000009000BF00BF032001900220029000206D
:100DF0000390032004900920059001A9084800F001
:100E0000E3FA00221146142000F07AFC142000F0CE
:100E100069FC06B010BD000000640040403802408C
:100E2000000C02407047000030B52DED048B89B0F6
:100E300004466B4602AA00212046FFF722FD0298D5
:100E4000A0F20120072851D2DFE800F004050607D0
:100E500008090A0000BF00BF00BF00BF00BF00BFFD
:100E60000298401E424908700846007800EB800056
:100E7000404931F8100000B23D49097801EB810189
:100E80003C4A02EB410108819DF801009DF80010E9
:100E900040EA01203649097801EB810122F811006E
:100EA0009DF803009DF8021040EA012000B230498D
:100EB000097801EB810102EB410148809DF80500B2
:100EC0009DF8041040EA012000B22949097801EB9D
:100ED000810102EB410188809DF8060024490978D0
:100EE00001EB810102EB4101887100E000BF00BF0E
:100EF000214D95ED600ABDEEC00A10EE105A2BB2DE
:100F00001D4D95ED450ABDEEC00A10EE105A2AB2ED
:100F1000194D95ED2A0ABDEEC00A10EE105A29B2FD
:100F2000154D95ED0F0ABDEEC00A10EE105A28B20D
:100F3000FFF7C0FA11490968B1F9080003F079FC1C
:100F400041EC190B9FED0E0B53EC102B03F088FCBA
:100F500041EC180B03F03EFC05B200232A4619466B
:100F60001846FFF7CFFA09B0BDEC048B30BD000086
:100F70003E0000201C0200206C0000200000002029
:100F8000000000000000F83F70477047704770B5E0
:100F9000044694F82000012805D0606A40F400203F
:100FA0006062012070BD022084F820002068016882
:100FB00021F00101016000F027FB05462068406830
:100FC00010F0010F12D000F01FFB401B0A2808D9B7
:100FD000606A40F400306062052084F8200001203F
:100FE00070BD2068406810F0010FECD100206062F5
:100FF00070BD7047704770477047704770477047C3
:101000002DE9F0410446A66D00F0FEFA054694F87D
:1010100035000027022806D08020606584F83470EF
:101020000120BDE8F0812068016821F0160101600F
:101030002068416921F080014161206C08B9A06CF1
:1010400020B12068016821F0080101602068016872
:1010500021F0010101602068006810F0010F12D03A
:1010600000F0D2FA401B052808D920206065032033
:1010700084F8350084F83470BDE8F0812068006899
:1010800010F0010FECD194F85C003F2101FA00F060
:10109000B060012084F8350084F834700020BDE889
:1010A000F08190F83510022903D08021416501209C
:1010B0007047052180F835100068016821F00101B2
:1010C00001600020704700002DE9F84304464FF00E
:1010D0000008CDF8008076484FF416510068B0FB48
:1010E000F1F7A56D2E6894F85C00082101FA00F074
:1010F000304211D02068026812F0040F0CD0026850
:1011000022F00402026094F85C0001FA00F0A8608A
:10111000606D40F00100606594F85C004FF00109DB
:1011200009FA00F0304209D02168496911F0800FB6
:1011300004D0A860606D40F00200606594F85C1017
:1011400004208840304209D02168096811F0020F5C
:1011500004D0A860606D40F00400606594F85C10F5
:1011600010208840304224D02168096811F0080F0F
:101170001FD0A8602068016811F4802F0DD000688E
:1011800010F4002F04D0A16C99B12046884710E0DC
:10119000216C71B1204688470BE0016811F4807F13
:1011A00003D1016821F008010160216C09B12046DA
:1011B000884794F85C1020208840304251D0216844
:1011C000096811F0100F4CD0A86094F8350005287C
:1011D0000DD02068016811F4802F32D0006810F41F
:1011E000002F29D0E16B59B32046884739E02068A9
:1011F000016821F0160101602068416921F0800139
:101200004161206C08B9A06C20B12068016821F010
:101210000801016094F85C003F2101FA00F0A86029
:1012200084F8359084F83480216D00293ED001B0D7
:101230002046BDE8F0430847616C09B12046884765
:101240000FE0016811F4807F07D1016821F01001DF
:10125000016084F8359084F83480E16B09B1204650
:101260008847606D002821D0606D10F0010F15D007
:10127000052084F835002068016821F00101016033
:101280000098401C0090B84204D82068006810F014
:10129000010FF5D184F8359084F83480E16C002991
:1012A00004D001B02046BDE8F0430847BDE8F8830C
:1012B000500000202DE9F041044600F0A5F9054654
:1012C000DCB1022084F83500002684F83460206800
:1012D000016821F0010101602068006810F0010F31
:1012E00013D000F091F9401B052809D92020606532
:1012F000032084F83500BDE8F0810120BDE8F081CD
:101300002068006810F0010FEBD121680868234ABB
:101310001040A3686268D4F810C01A43E36843EA37
:101320000C031A4363691A43A3691A43E3691A4316
:10133000236A1A431043626A042A03D1236BE26AC8
:101340001A43104308602068406920F00701606A72
:1013500040EA0105012704280ED1A06A0543E06A8E
:1013600050B12046FFF720F930B14020606584F885
:1013700035700120BDE8F081206845612046FFF707
:10138000F9F894F85C103F2202FA01F18160666579
:1013900084F835700020BDE8F08100003F8010F037
:1013A00070B5044600F030F90546B4F1FF3F02D0B5
:1013B00004480078044400F027F9401BA042FAD307
:1013C00070BD0000440000202DE9F84F0022DFF836
:1013D0001492DFF814A2DFF814B24FF0010E0327C5
:1013E0004FF00F080EFA02FC0B6803EA0C0363458A
:1013F0007DD10C7904F00304012C01D0022C14D10E
:101400008568540007FA04F6B543CE6806FA04F47A
:101410002C438460446824EA0C0C0C79C4F3001457
:10142000944044EA0C0CC0F804C0D1F804C037EA78
:101430000C0C0CD0C4684FEA420C07FA0CF5AC4314
:101440008D6805FA0CFC4CEA040CC0F80CC091F84D
:1014500004C00CF0030CBCF1020F12D14FEAD20C05
:1014600000EB8C04256A4FEA427C4FEADC6C08FAF8
:101470000CF6B5430E6906FA0CFC4CEA050CC4F8F0
:1014800020C004684FEA420C07FA0CF5AC430D7912
:1014900005F0030505FA0CFC4CEA040CC0F800C08A
:1014A000D1F804C01CF4403F7DD0D9F800C04CF402
:1014B000804CC9F800C0D9F800C00CF4804CCDF8BD
:1014C00000C022F0030C0CF1804505F59835D5F8E5
:1014D00008C89407240F08FA04F62CEA0606A0F1BF
:1014E000804CBCF5003C64D0A0F1804C00E05AE098
:1014F000BCF5013C60D0A0F1804CBCF5023C5ED054
:10150000A0F1804CBCF5033C5CD0A0F1804CBCF554
:10151000043C5AD0A0F1804CBCF5053C58D0A0F159
:10152000804CBCF5063C56D0A0F1804CBCF5073C85
:1015300054D04FF0080C0CFA04FC4CEA060CC5F829
:1015400008C8DAF800C02CEA030C4C6814F4803F99
:1015500001D04CEA030CCAF800C0254CD4F800C0F6
:101560002CEA030C4D6815F4003F01D04CEA030C43
:10157000C4F800C0DBF800C02CEA030C4C6814F47B
:10158000801F01D04CEA030CCBF800C0194CD4F8F2
:1015900000C02CEA030C4D6815F4001F01D04CEA82
:1015A000030CC4F800C0521C102AFFF41BAFBDE8A6
:1015B000F88F4FF0000CBEE74FF0010CBBE74FF087
:1015C000020CB8E74FF0030CB5E74FF0040CB2E79C
:1015D0004FF0050CAFE74FF0060CACE74FF0070CEF
:1015E000A9E7000044380240003C0140083C0140AB
:1015F000043C01400C3C0140002A01D0816170474D
:10160000090481617047000001488068704700004C
:1016100044000020024881680278114481607047CC
:101620004400002010B50B48016841F400710160CE
:10163000016841F480610160016841F480710160DA
:10164000032000F091F80F2000F006F800F026F8D3
:10165000002010BD003C024070B504460D4D4FF413
:101660007A712878B1FBF0F00B490968B1FBF0F012
:1016700000F0EAFB08B1012070BD102C07D2002257
:101680002146501E00F03CF86C60002070BD012027
:1016900070BD0000440000205000002008B500BFCD
:1016A000002000900E48006840F480400C4908601B
:1016B0000846006800F48040009000BF00BF00BFF3
:1016C00000200090081F006840F08050091F08604B
:1016D0000846006800F08050009000BF00BF08BDC1
:1016E0004438024000280ADB00F01F01012202FA00
:1016F00001F14009800000F1E020C0F800117047BE
:1017000010B4184B1B68C3F30223C3F1070CBCF1E0
:10171000040F01D94FF0040C1C1D072C01D200232B
:1017200000E0DB1E012404FA0CFCACF1010C0CEA15
:101730000101994004FA03F35B1E1A40114300288B
:1017400006DB00F1E020090180F8001410BC7047AE
:1017500000F00F0000F1E020090180F8141D10BC1A
:10176000704700000CED00E000F00700064A116829
:101770004FF6FF03194041EA002040F0FD7040F0B1
:1017800080601060704700000CED00E02DE9F0472C
:1017900004460D46002C13D0DFF85491D9F8000010
:1017A000EFB200F00700A8420DD289F80070D9F816
:1017B000000000F00700A84205D00120BDE8F08736
:1017C0000120BDE8F08720684A4E10F0020F14D0C7
:1017D00010F0040F03D0306840F4E05030602078FF
:1017E00010F0080F03D0306840F46040306030687B
:1017F000A16820F0F00008433060207810F0010F5D
:101800003ED060683C49012808D002280DD003284A
:101810000BD0096811F0020F28D00AE0096811F412
:10182000003F06D10120BDE8F087096811F0007F74
:1018300019D0316821F0030108433060FFF7E4FE5E
:1018400080463068616800F00C00B0EB810F17D063
:1018500041F2883AFFF7D8FEA0EB0800504508D9BE
:101860000320BDE8F0870120BDE8F0870120BDE836
:10187000F0873068616800F00C00B0EB810FE9D1AF
:10188000D9F8000000F00700A8420AD989F80070D2
:10189000D9F8000000F00700A84202D00120BDE8FE
:1018A000F087207810F0040F05D03068E16820F44C
:1018B000E05008433060207810F0080F06D0306800
:1018C000216920F4604040EAC100306000F042F835
:1018D00031680A4AC1F30311515CC84008490860E5
:1018E00008480068FFF7B8FE0020BDE8F087000058
:1018F000003C02400838024000380240484C0008D2
:101900005000002048000020014800687047000097
:101910005000002000B5FFF7F7FF04490968044AAA
:10192000C1F38221515CC84000BD0000083802406C
:10193000584C000800B5FFF7E7FF04490968044A5E
:10194000C1F34231515CC84000BD0000083802407C
:10195000584C000810B51748006810F00C011648E4
:1019600016D0164B042912D0082911D1144C216825
:1019700001F03F02216811F4800F0AD02068C0F303
:101980008810A0FB03010023FEF76EFC09E0184657
:1019900010BD21680023C1F38811A1FB0001FEF7EF
:1019A00063FC2168C1F30141491C4900B0FBF1F01F
:1019B00010BD0000083802400024F400001BB700EE
:1019C000043802402DE9F84F0446002C12D020784C
:1019D000FB4E10F0010FA6F1040563D0301D016825
:1019E00001F00C0104290CD0006800F00C0008285C
:1019F00003D010E00120BDE8F88F306810F4800FAC
:101A000009D0286810F4003F4CD06068002849D104
:101A10000120BDE8F88F6068B0F5803F14D0B0F5C4
:101A2000A02F16D0286820F480302860286820F481
:101A300080202860606810B3FFF7E6FD074628683D
:101A400010F4003F0ED02DE0286840F4803028606C
:101A5000F0E7286840F480202860286840F480304F
:101A60002860E7E7FFF7D0FDC01B642802D90320F8
:101A7000BDE8F88F286810F4003FF3D012E0FFF7BC
:101A8000C3FD0746286810F4003F0BD0FFF7BCFDEC
:101A9000C01B642802D90320BDE8F88F286810F421
:101AA000003FF3D12078C74F10F0020F4FF000092C
:101AB00057D0C548016811F00C0F14D0006800F031
:101AC0000C00082803D1306810F4800F0BD0E068B8
:101AD00080B301203860FFF797FD8046286810F03A
:101AE000020F12D01EE0286810F0020F05D0E06847
:101AF000012802D00120BDE8F88F2868216920F074
:101B0000F80040EAC10028602BE0FFF77DFDA0EB64
:101B10000800022802D90320BDE8F88F286810F0D9
:101B2000020FF2D02868216920F0F80040EAC100D5
:101B3000286016E0FFE7C7F80090FFF765FD8046D4
:101B4000286810F0020F0CD0FFF75EFDA0EB080034
:101B5000022802D90320BDE8F88F286810F0020F90
:101B6000F2D1207810F0080F35D09848DFF860A245
:101B70006169C1B101210160FFF746FD8046DAF8D5
:101B8000000010F0020F26D1FFF73EFDA0EB080089
:101B9000022802D90320BDE8F88FDAF8000010F01F
:101BA000020FF1D017E0C0F80090FFF72DFD80463E
:101BB000DAF8000010F0020F0DD0FFF725FDA0EBC2
:101BC0000800022802D90320BDE8F88FDAF80000E7
:101BD00010F0020FF1D1207810F0040F71D04FF007
:101BE00000087C48006810F0805F0AD179480168DD
:101BF00041F080510160006800F0805000904FF08B
:101C00000108DFF8D4B1DBF8000010F4807F1BD1AD
:101C1000DBF8000040F48070CBF80000FFF7F4FC24
:101C20008246DBF8000010F4807F0DD1FFF7ECFC5A
:101C3000A0EB0A00022802D90320BDE8F88FDBF8E8
:101C4000000010F4807FF1D0A068DFF890B1012887
:101C500018D005281DD0DBF8000020F00100CBF8DB
:101C60000000DBF8000020F00400CBF80000A068C2
:101C700040B3FFF7C9FC8246DBF8000010F0020F0A
:101C800014D03EE0DBF8000040F00100CBF800008B
:101C9000EDE7DBF8000040F00400CBF80000DBF8D3
:101CA000000040F00100CBF80000E0E7FFF7ACFCDB
:101CB000A0EB0A0141F28830814204D90320BDE83B
:101CC000F88F26E005E0DBF8000010F0020FEDD001
:101CD00017E0FFF799FC8246DBF8000010F0020FD6
:101CE0000FD0FFF791FCA0EB0A0141F2883081424E
:101CF00002D90320BDE8F88FDBF8000010F0020FD6
:101D0000EFD1B8F1010F04D13248016821F08051C0
:101D10000160A069F0B32C4909684FF0FF3801F069
:101D20000C01082966D0022810D0C7F86090FFF790
:101D30006BFC0446286810F0007F2BD0FFF764FC92
:101D4000001B022851D90320BDE8F88FC7F8609026
:101D5000FFF75AFC8146286810F0007F0CD0FFF78F
:101D600053FCA0EB0900022802D90320BDE8F88F3C
:101D7000286810F0007FF2D1216AE069A26A084366
:101D8000616A08EB5202890141EA0241084394F872
:101D90002C1000E055E040EA016030600120386618
:101DA000FFF732FC0446286810F0007F49D1FFF7A6
:101DB0002BFC001B022813D90320BDE8F88F00007C
:101DC000043802400000474208380240800E474273
:101DD00074380240403802400070004070380240C1
:101DE000286810F0007FE2D02BE0286810F0007F18
:101DF000A4D126E0012822D03068E26900F48001F5
:101E000091421AD1226A00F03F01914215D147F662
:101E1000C071626A0140B1EB821F0ED1A26A00F468
:101E2000403108EB5202B1EB024F06D194F82C106E
:101E300000F07060B0EB016F03D00120BDE701201E
:101E4000BBE70020B9E70000401EB0F1807F01D35E
:101E5000012070474FF0E0214861044AF0201070E3
:101E600000208861072008610020704723ED00E012
:101E700090F83C20012A2CD0012280F83C20CA682E
:101E80000023D1F808C022F4407242EA0C02D1F8D3
:101E900004C022F4806242EA0C02D1F800C022F4AD
:101EA000006242EA0C02D1F810C022F4805242EAE9
:101EB0000C02D1F814C022F4005242EA0C02C969A3
:101EC00022F4804211430268516480F83C300020C3
:101ED00070470220704730B490F83C20012A44D06B
:101EE000012480F83C40022280F83D200268D2F8AC
:101EF00004C093682CF0700C0D6845EA0C0CC2F815
:101F000004C00268A2F1804CBCF5803C20D0B2F144
:101F1000804F1DD0A2F1804CBCF5806C18D0A2F18E
:101F2000804CBCF5006C13D0A2F1804CBCF5406C29
:101F30000ED0A2F1804CBCF5823C09D0A2F1804CBD
:101F4000BCF5A03C04D0A2F1804CBCF5C05C04D12F
:101F500023F0800349681943916080F83D400021D7
:101F600080F83C1030BC0020704730BC0220704725
:101F700010B50446002C03D094F83D0010B107E0E2
:101F8000012010BD002084F83C00204600F01EF81F
:101F9000022084F83D00211D206801F06DF9012028
:101FA00084F8460084F83E0084F83F0084F840003E
:101FB00084F8410084F8420084F8430084F8440027
:101FC00084F8450084F83D00002010BD08B5144A8F
:101FD000016891420FD100BF0021009111490968A9
:101FE00041F001010F4A11601146096801F0010139
:101FF000009100BF13E00C4A016891420FD100BF6D
:10200000002100910749096841F00201054A116069
:102010001146096801F00201009100BF00BF08BD30
:1020200000000140443802400004014090F83D1097
:10203000012901D001207047022180F83D1000687D
:10204000A0F18041B1F5803126D0B0F1804F23D08E
:10205000A0F18041B1F580611ED0A0F18041B1F5C1
:10206000006119D0A0F18041B1F5406114D0A0F118
:102070008041B1F582310FD0A0F18041B1F5A0319E
:102080000AD0A0F18041B1F5C05105D0016841F0FE
:102090000101016000207047816801F007010629F5
:1020A000F8D0016841F001010160F3E770B5044622
:1020B000002594F83C00012818D0012684F83C60E3
:1020C000022084F83D002068826822F0770222F422
:1020D0007F4282600868502839D00EDC202854D016
:1020E00006DC002851D0102811D14EE0022070BD2E
:1020F00030284AD040280AD13DE0602831D07028ED
:102100000DD0B0F5805F03D0B0F5005F13D001258E
:1021100084F83D60002084F83C00284670BDCB6800
:102120004A688968206801F01CF92068816841F0DC
:1021300077018160ECE7CB684A688968206801F024
:1021400010F92068816841F480418160E0E7CA6845
:102150004968206801F0F4F95021206801F00CF979
:10216000D6E7CA684968206801F0FDF96021206857
:1021700001F002F9CCE7CA684968206801F0E0F98B
:102180004021206801F0F8F8C2E7226801461046B5
:1021900001F0F2F8BCE7000010B586B00446142147
:1021A00001A8FEF7D8F83F49206888423BD100BF1C
:1021B000002000903C48006840F001003A49086067
:1021C0000846006800F00100009000BF00BF00BF9B
:1021D000002000900846006840F0100008600846A3
:1021E000006800F01000009000BF00BF4FF4506086
:1021F000019002200290002003900490012005909D
:1022000001A92A48FFF7E0F84FF40060019002208E
:1022100002900020039004900120059001A9244819
:10222000FFF7D2F83CE023492068884238D100BF4C
:10223000002000901C48006840F480701A49086033
:102240000846006800F48070009000BF00BF00BF27
:10225000002000900846006840F00400086008462E
:10226000006800F00400009000BF00BFC42001908F
:10227000022002900020039004900320059001A901
:102280000D48FFF7A1F840200190022002900020A5
:10229000039004900320059001A90848FFF794F8E3
:1022A00006B010BD0000014030380240000002407E
:1022B00000100240000401400020024000080240DB
:1022C00070B504460D46002694F83C0001280FD056
:1022D000012084F83C006AB1042A1FD0082A32D0B9
:1022E0000C2A44D00126002084F83C00304670BD02
:1022F000022070BD2946206801F046F820688169F7
:1023000041F0080181612068816921F00401816147
:10231000206881692A6911438161E4E729462068C0
:1023200001F06AF82068816941F4006181612068E8
:10233000816921F480618161206881692A6941EAAB
:1023400002218161CFE72946206801F091F82068D9
:10235000C16941F00801C1612068C16921F004012F
:10236000C1612068C1692A691143C161BBE729467F
:10237000206801F0B9F82068C16941F40061C161C9
:102380002068C16921F48061C1612068C1692A693E
:1023900041EA0221C161A6E710B50446002C03D032
:1023A00094F83D0010B107E0012010BD002084F832
:1023B0003C00204600F01EF8022084F83D00211D5C
:1023C000206800F059FF012084F8460084F83E00A0
:1023D00084F83F0084F8400084F8410084F842000B
:1023E00084F8430084F8440084F8450084F83D00F4
:1023F000002010BD7047000010B50446002909D028
:1024000004290AD008290BD094F8410001280AD0E9
:10241000012010BD94F83E00F8E794F83F00F5E77E
:1024200094F84000F2E70220D9B3042947D00829E4
:1024300048D084F841000122206800F083FF234A3D
:1024400020682349904201D0884203D1436C43F471
:10245000004343642068904224D0B0F1804F21D0E3
:10246000A0F18042B2F580621CD0A0F18042B2F5AA
:10247000006217D0A0F18042B2F5406212D08842CB
:1024800010D0A0F18041B1F5A0310BD0A0F1804176
:10249000B1F5C05106D0016841F001010160002092
:1024A00010BD09E0816801F007010629F7D0016835
:1024B00041F001010160F2E784F83E00BBE784F8D7
:1024C0003F00B8E784F84000B5E700000000014095
:1024D0000004014070477047F8B504462268106850
:1024E000D168536900F00F0CBCF1000F0AD110F055
:1024F000200F07D011F0200F04D02046BDE8F8408F
:1025000001F07FB80025BCF1000F75D003F0010C7D
:1025100001F490765CEA06066ED010F0010F06D04A
:1025200011F4807F03D0226C42F00102226410F08B
:10253000040F06D013F0010F03D0226C42F0020208
:10254000226410F0020F06D013F0010F03D0226CAA
:1025500042F00402226410F0080F08D001F02002BB
:1025600052EA0C0203D0226C42F008022264226C70
:10257000002A35D010F0200F05D011F0200F02D026
:10258000204601F03EF820684069C0F38010216CBD
:1025900011F0080F00D148B3204600F0FEFF20687C
:1025A000406910F0400F1CD02068143050E8001F24
:1025B00021F0400140E80012002AF5D1A06B60B183
:1025C0005C490165A06BFEF76CFD002808D0A06B8C
:1025D000016D01B0BDE8F04008472046FFF77BFFE2
:1025E000F8BD2046FFF777FFF8BD05E0FFE720467E
:1025F000FFF771FF2564F8BD236B012B7ED110F02E
:10260000100F7BD011F0100F7ED010685068009032
:1026100050694FF0200310F0400F43D0A16B0868C1
:10262000406880B20028E6D0A28D8242E3D9E085DE
:10263000C869B0F5807F2DD020680C3050E8001FAD
:1026400021F4807140E80012002AF5D1206814308E
:1026500050E8001F21F0010140E80012002AF5D1E6
:102660002068143050E8001F21F0400140E80012BB
:10267000002AF5D184F83E30256320680C3050E8FC
:10268000001F21F0100140E80012002AF5D1A06BD4
:10269000FEF7B6FCA08DE18D401A81B22046FFF70F
:1026A00019FFF8BDA08DE18D401A81B2E08D0028A0
:1026B000F7D00029F5D020680C3050E8002F22F424
:1026C000907240E8002CBCF1000FF4D12068143067
:1026D00050E8002F22F0010240E8002CBCF1000F6E
:1026E000F4D184F83E30256320680C3050E8002F88
:1026F00022F0100240E80023002B00E004E0F3D1B8
:102700002046FFF7E7FEF8BD10F0800F07D011F06C
:10271000800F04D02046BDE8F84001F070B810F0FA
:10272000400FF0D011F0400FEDD02046BDE8F8404A
:1027300000F05ABF8B35000870B50446002C04D059
:1027400094F83D00002510B106E0012070BD84F82A
:102750003C50204600F022F8242084F83D002068F8
:10276000C16821F40051C160204600F0AFFF20682D
:10277000016921F4904101612068416921F02A0139
:1027800041612068C16841F40051C1602564202086
:1027900084F83D0084F83E00002070BD10B586B07E
:1027A0000446142101A8FDF7D6FD7149206888422E
:1027B0007AD100BF002000906E48006840F0100001
:1027C0006C4908600846006800F01000009000BFE7
:1027D00000BF00BF0020009066481438006840F039
:1027E00002006449143908600846006800F00200DD
:1027F000009000BF00BF00BF0020009008460068A6
:1028000040F0010008600846006800F001000090F8
:1028100000BF00BF802001900220029000200390A2
:10282000032004900720059001A95348FEF7CCFD32
:102830004FF40070019002200290002003900320CA
:1028400004900720059001A94C48FEF7BDFD4C48B7
:102850004C4908604FF00060486040214948816061
:102860000021C1604FF480610161002141618161FB
:102870004FF48071C1614FF4403101620021416227
:10288000FEF718FD08B1FDF7CFFE00BF3D486063BD
:10289000846300BF002211462520FEF731FF25206A
:1028A000FEF720FF61E0FFE73749206888425CD1EE
:1028B00000BF002000902F48001F006840F48020D7
:1028C0002C49091F08600846006800F48020009029
:1028D00000BF00BF00BF00200090264814380068E9
:1028E00040F004002349143908600846006800F0ED
:1028F0000400009000BF00BF4FF440600190022030
:10290000029000200390032004900720059001A965
:102910001E48FEF759FD1E481E4908604FF0006032
:10292000486000211B488160C1604FF480610161F3
:102930000021416181614FF48071C1614FF44031E8
:10294000016200214162FEF7B5FC08B1FDF76CFEA3
:1029500000BF1048A063846300BF002211462720F7
:10296000FEF7CEFE2720FEF7BDFE06B010BD00002C
:1029700000100140443802400004024000000240C0
:10298000B8640240D0030020004800400008024024
:10299000286002403004002090F83E30202B01D007
:1029A0000220704759B152B190F83C30012B08D049
:1029B000012380F83C300023036300F005BF0120B1
:1029C000704702207047000070B5044664492068D3
:1029D000884211D100206349088048808880C880DF
:1029E00061A16548FDF7DEFC38B942F210731E2282
:1029F0006249634800F0D0F8B0E001221103614859
:102A0000FEF7FAFD42F210731E225B495C4800F0AB
:102A1000C3F80020642121E0574A125C5A4B1A5433
:102A20001A46125C392A11DC1A46125C302A0DDB78
:102A30004C4A1388544A125C303A02FB0132494B2B
:102A40001A800A2291FBF2F291B204E00A2291FB71
:102A5000F2F291B200E000BF421C90B20328DBDB2F
:102A60000420642122E0444A135C021F474DAB540A
:102A70002B469A5C392A11DC021F9A5C302A0DDB46
:102A8000384A5388021FAA5C303A02FB0132354BA8
:102A90005A800A2291FBF2F291B204E00A2291FBE1
:102AA000F2F291B200E000BF421C90B20728DADBDC
:102AB0000820642125E0304A135CA0F10802344D5F
:102AC000AB542B469A5C392A13DCA0F108029A5CBD
:102AD000302A0EDB234A9388A0F10802AA5C303A20
:102AE00002FB01321F4B9A800A2291FBF2F291B253
:102AF00004E00A2291FBF2F291B200E000BF421C16
:102B000090B20B28D7DB0C20642125E01A4A135C15
:102B1000A0F10C021F4DAB542B469A5C392A13DCF2
:102B2000A0F10C029A5C302A0EDB0E4AD388A0F189
:102B30000C02AA5C303A02FB01320A4BDA800A220C
:102B400091FBF2F291B204E00A2291FBF2F291B20F
:102B500000E000BF421C90B20F28D7DB70BD000020
:102B6000001001403600002020203020202030209E
:102B70002020302020203000620200200C000020A5
:102B800048030020001C02402A0000202D000020E5
:102B900030000020330000202DE9F84304460E46A3
:102BA00015461F4694F83D00202802D00220BDE8BB
:102BB000F883C6B1BDB194F83C00012816D00120BD
:102BC00084F83C004FF00009C4F84090212084F8BC
:102BD0003D00FEF719FD8046A584E584A068B0F5A8
:102BE000805F06D007E00120BDE8F8830220BDE841
:102BF000F883206980B13546002684F83C90E08C4B
:102C0000B8B14346002280212046009700F026FEFE
:102C100020B10320BDE8F8830025EEE7A5B12168C7
:102C2000287848606D1CE08C401EE084E08C002811
:102C3000E7D14346002240212046009700F00EFED7
:102C400048B10320BDE8F88330882168C0F308004C
:102C50004860B61CE7E7202084F83D000020BDE86E
:102C6000F883704700BFFEE710B50E480E490860B4
:102C70000320486000210C488160C1604FF410219E
:102C800001614FF4001141610021017641768176A6
:102C9000C17601774177FDF7C4FF08B1FDF7C4FCA9
:102CA00010BD0000006400409002002008B500BF85
:102CB000002000901648006840F400101449086095
:102CC0000846006800F40010009000BF00BF00BF7D
:102CD000002000900846006840F480000860084624
:102CE000006800F48000009000BF00BF0022114681
:102CF0000C20FEF705FD0C20FEF7F4FC0022114627
:102D00004620FEF7FDFC4620FEF7ECFC08BD000067
:102D10003038024000B587B0142102A8FDF71BFB34
:102D200000BF002001903D48006840F001003B4991
:102D300008600846006800F00100019000BF00BF75
:102D400000BF002001900846006840F002000860C3
:102D50000846006800F00200019000BF00BF00BFFD
:102D6000002001900846006840F00800086008460E
:102D7000006800F00800019000BF00BF00BF002005
:102D800001900846006840F00400086008460068AA
:102D900000F00400019000BF00BF00BF00200190C0
:102DA0000846006840F4807008600846006800F437
:102DB0008070019000BF00BF00BF00200190084656
:102DC000006840F0800008600846006800F080005D
:102DD000019000BF00BF00BF0020019008460068BE
:102DE00040F0100008600846006800F010000190F4
:102DF00000BF00BF00224FF4E0510948FEF7FCFB82
:102E00004FF4E050029001200390002004900590C0
:102E100002A90348FEF7D8FA07B000BD30380240D7
:102E2000001C024000B595B0002011901290139044
:102E300014900F9010901C2108A8FDF78CFA202107
:102E40006846FDF788FA384838490860A720486086
:102E500000213648816044F61F61C1600021016194
:102E600041618161FFF784F808B1FDF7DDFB4FF4A4
:102E70008050119011A92D48FFF718F908B1FDF7FE
:102E8000D3FB2A48FFF788FA08B1FDF7CDFB0020F5
:102E90000F9010900FA92548FFF71DF808B1FDF716
:102EA000C3FB602008904FF4FA60099000200A905C
:102EB0000B900C900D900E90002208A91B48FFF774
:102EC000FFF908B1FDF7B0FB042208A91748FFF786
:102ED000F7F908B1FDF7A8FB082208A91348FFF786
:102EE000EFF908B1FDF7A0FB0C2208A90F48FFF786
:102EF000E7F908B1FDF798FB0020009001900290DF
:102F0000039004904FF4005005900020079069460C
:102F10000648FEF7ADFF08B1FDF786FB0348FFF753
:102F20003BF915B000BD000000000140B8020020D0
:102F300000B595B0002011901290139014900F904E
:102F400010901C2108A8FDF706FA20216846FDF71D
:102F500002FA394839490860A720486000213748FB
:102F6000816044F61F61C16000210161416181619E
:102F7000FEF7FEFF08B1FDF757FB4FF480501190AC
:102F800011A92E48FFF792F808B1FDF74DFB2B4829
:102F9000FFF702FA08B1FDF747FB00200F901090F1
:102FA0000FA92648FEF797FF08B1FDF73DFB60200B
:102FB00008904FF47A70099000200A900B900C90C2
:102FC0000D900E90002208A91C48FFF779F908B16E
:102FD000FDF72AFB042208A91848FFF771F908B188
:102FE000FDF722FB4FF4C8600990082208A9134896
:102FF000FFF766F908B1FDF717FB0C2208A90F4887
:10300000FFF75EF908B1FDF70FFB0020009001907B
:103010000290039004904FF4005005900020079018
:1030200069460648FEF724FF08B1FDF7FDFA03489C
:10303000FFF7B2F815B000BD000401400003002006
:1030400010B50B480B4908604FF4E130486000218F
:1030500008488160C16001610C21416100218161EA
:10306000C161FFF769FB08B1FDF7DEFA10BD000092
:10307000001001404803002010B50A480A490860C2
:103080000A484860002108488160C160016104214C
:10309000416100218161C161FFF74EFB08B1FDF77D
:1030A000C3FA10BD004800408C030020A086010038
:1030B00000BFFEE700BFFEE72DE9F0412DED048BD8
:1030C00004460D4616461F46B0EE408AF0EE608A72
:1030D000B0EE419A0A4860660A48A066B0EE491A06
:1030E000F0EE680AB0EE480A3B46324629462046D2
:1030F000D4F864C0E047BDEC048BBDE8F08100006B
:10310000A9420008BD4200087047000010B5234BDB
:103110001B685B6943F04003204C246863611F4BCC
:103120001B68DB6843F010031C4C2468E3601C4BF5
:103130001B681B6823F00103194C2468236007E017
:10314000174B1B681B6823F00103154C2468236090
:10315000134B1B681B6803F00103002BF0D1114BCC
:103160000F4C2468A3600E4B1B68D8600C4B1B6887
:1031700019610B4B1B685A60094B1B681B6843F4B1
:103180008023074C24682360054B1B681B6843F0B1
:103190000103034C2468236010BD00008C03002051
:1031A0003004002004480040704710B5FEF732FAA2
:1031B00010BD000000B593B0302107A8FDF7CBF893
:1031C000142102A8FDF7C7F800BF00200190244891
:1031D000006840F08050224908600846006800F00E
:1031E0008050019000BF00BF00BF002001901D482B
:1031F000006840F480401B4908600846006800F4FD
:103200008040019000BF00BF01200790000408909B
:1032100002200D9041050E9106210F91A8211091D9
:10322000022111910421129107A8FEF7CBFB08B1EE
:10323000FDF7FAF90F20029002200390002004907D
:103240004FF4A05005904FF480500690052102A83D
:10325000FEF79CFA08B1FDF7E7F913B000BD0000D6
:1032600040380240007000400248016841F470019B
:103270000160704788ED00E0F0B402682C4B2D4CE3
:103280002D4D2E4EDFF8B8C098420AD0B0F1804FD5
:1032900007D0A04205D0A84203D0B04201D060457B
:1032A00003D122F070024F683A43984228D0B0F11F
:1032B000804F25D0A04223D0A84221D0B0421FD0B9
:1032C00060451DD0A0F18044B4F5A03418D0A0F121
:1032D0008044B4F5A23413D0A0F18044B4F5A434F2
:1032E0000ED0A0F18044B4F5C05409D0A0F18044C0
:1032F000B4F5E05404D0A0F18044B4F5005403D1F7
:1033000022F44072CC6822434C6922F080022243AE
:1033100002608A68C2620A688262984201D060458F
:1033200001D10969016301214161F0BC70470000CE
:10333000000001400004004000080040000C004074
:103340000004014001F01F0101238B40D0F820C090
:103350002CEA03030362036A02FA01F119430162D2
:103360007047D0F808C02CF47F4C42EA0322114386
:1033700041EA0C0181607047826822F070021143BB
:1033800041F007018160704770B4026A22F00102C7
:103390000262036A4268D0F818C02CF0700C2CF05E
:1033A000030C0C6844EA0C0C23F002038C682343E2
:1033B0000F4C104DA04201D0A84205D123F00803C4
:1033C000CE68334323F00403A04201D0A84207D1C2
:1033D00022F4807222F400724C6922438C692243E9
:1033E0004260C0F818C049684163036270BC70470E
:1033F000000001400004014070B4026A22F0100293
:103400000262036A4268D0F818C02CF4E04C2CF435
:10341000407C0C684CEA042C23F020038C6843EABF
:103420000413114C114DA04201D0A84206D123F043
:103430008003CE6843EA061323F04003A04201D084
:10344000A84209D122F4806222F400624C6942EA67
:1034500084028C6942EA84024260C0F818C049685C
:103460008163036270BC70470000014000040140AA
:1034700070B4026A22F480720262036A4268D0F871
:103480001CC02CF0700C2CF0030C0C6844EA0C0CE3
:1034900023F400738C6843EA0423114C114DA042BD
:1034A00001D0A84206D123F40063CE6843EA062384
:1034B00023F48063A04201D0A84209D122F48052B3
:1034C00022F400524C6942EA04128C6942EA041266
:1034D0004260C0F81CC04968C163036270BC704799
:1034E000000001400004014010B4026A22F480523E
:1034F0000262D0F820C04268C36923F4E04323F499
:1035000040730C6843EA04232CF4005C8C684CEA9A
:10351000043CA0F18044B4F5803404D0A0F1804490
:10352000B4F5823404D122F480424C6942EA841218
:103530004260C36149680164C0F820C010BC704794
:10354000036AD0F820C02CF0010CC0F820C0D0F8DD
:1035500018C02CF0F00C4CEA021223F00A031943B5
:10356000826101627047036A23F010030362D0F89E
:1035700018C0036A2CF4704C4CEA023223F0A0030A
:1035800043EA011182610162704710B5806B00212E
:10359000C185C184FEF79FFF10BD01680C3151E861
:1035A000002F22F4907241E80023002BF5D101682E
:1035B000143151E8002F22F0010241E80023002BD2
:1035C000F5D1016B012909D101680C3151E8002FB7
:1035D00022F0100241E80023002BF5D1202180F8D1
:1035E0003E1000210163704710B50168CA6822F0DF
:1035F0004002CA60202180F83D10FFF732FB002016
:1036000010BD08B590F83E10222901D0022008BD57
:103610008268B2F5805F01D1016929B1816AB2F592
:10362000805F1DD052B10BE0816A02685268C2F31C
:1036300008020A80816A891C816209E002697AB104
:103640000268526802F07F020A70816A491C816236
:10365000C18D491E0904090CC18505D0002008BD93
:10366000026852680A70F0E70168CA6822F0200216
:10367000CA600168CA6822F48072CA6001684A6937
:1036800022F001024A61202180F83E10016B0129DD
:1036900003D0FFF799F9002008BD002101630168FC
:1036A0000C3151E8002F22F0100241E80023002BDA
:1036B000F5D101680A6812F0100F02D00A68496853
:1036C0000091818DFEF706FFE5E700002DE9F0414E
:1036D000044620680169E26821F440511143016108
:1036E0002169A068E26908436169114301432068C8
:1036F000C26822F4037222F414421143C1602068AC
:103700004169A26921F44071114341612068A0F12F
:103710008041B1F588312ED0A0F18041B1F58A31D8
:1037200029D0FEF7F7F88446E16900201927254DD6
:103730003226B1F5004F22D06068830F8200ACFBC7
:103740000701FCF791FD0146A5FB002040097A42E4
:10375000424301EB820106EB0111A5FB012149095E
:1037600001F0F00202EB001001F00F0108442168A3
:103770008860BDE8F081FEF7DDF88446D4E7616833
:103780004A1840EB0003ACFB0701FCF76DFD034654
:10379000A5FB0010410918460A016FF018035943B0
:1037A00000EB810006EBC000A5FB0010400900F013
:1037B000F80102EB410100F007000844216888602D
:1037C000BDE8F0811F85EB5181628285C2850021B1
:1037D0000164222280F83E2080F83C100168CA680B
:1037E00042F48072CA6001684A6942F001024A618B
:1037F0000068C16841F02001C1600020704790F866
:103800003D10212901D0022070478168B1F5805F09
:1038100001D1016961B1016A4A1C0262026809783A
:103820005160C18C491E0904090CC1840AD013E0FF
:10383000016A02680988C1F308015160016A891CA4
:103840000162EEE70168CA6822F08002CA6000687F
:10385000C16841F04001C160002070472DE9F0418E
:103860000446069D884616461F462068006838EACA
:1038700000002AD00020B04231D1B5F1FF3F26D060
:1038800025B1FDF7C1FEC01BA84220D920680C302D
:1038900050E8001F21F4D07140E80012002AF5D151
:1038A0002068143050E8001F21F0010140E80012A8
:1038B000002AF5D1202084F83D0084F83E00002045
:1038C00084F83C000320BDE8F0810120D3E72068A4
:1038D000006838EA000005D00020B042CDD00020BA
:1038E000BDE8F0810120F8E710B50248FEF7F4FDCD
:1038F00010BD00004803002008B54148006800687A
:1039000000F0200060B100BF002000903C4800683B
:10391000006800903A4800684068009000BF6EE080
:103920003848006800F01000002868D000BF002070
:103930000090334800680068009031480068406893
:10394000009000BF00BF30480068006800F400200D
:1039500058BB2D480068006820F001002A4909681A
:103960000860294800684068C0F1240027490880A1
:10397000242025490968486023480068006840F40D
:1039800000202149096808601F480068006840F06D
:1039900001001D49096808601C48008812282ED1C2
:1039A0001B491C4800F09CFC29E01748006800688F
:1039B00020F0010014490968086013480068406855
:1039C000C0F124001149088024200F49096848608B
:1039D0001148806A20F400200F4988620A48006874
:1039E000006840F00100084909680860074800883D
:1039F000122804D106490748243000F071FC08BDA4
:103A00008C030020004800403004002040000020CB
:103A100090040020A60400200060024000BFFEE7E2
:103A2000D0ED000AF4EEC00AF1EE10FA01DD80EDEF
:103A3000000AD0ED000AB1EE401AF4EEC10AF1EE30
:103A400010FA03D2F1EE400AC0ED000A7047000000
:103A500000B58BB00120099000200790012008904C
:103A6000002001900290039004900690059001A917
:103A70000748FCF771FE0648FDF789FA0221044861
:103A8000FCF7D5FD0E200A9006900BB000BD00009B
:103A9000900200200849096801EB4001B1F90010CB
:103AA00000EE901AF8EEE00AB0EE001AC0EE811AAD
:103AB000B0EE610A70470000000000200849096864
:103AC00001EB4001B1F9001000EE901AF8EEE00AA7
:103AD000B1EE001A60EE810AB0EE600A7047000095
:103AE0000000002040F2DC500B49096848630A4995
:103AF0000968886308490968C86307490968086450
:103B00004FF47A7005490968486304490968886375
:103B100002490968C8637047B8020020000300200A
:103B200000487047900400202DED0C8B8AB04FF4B4
:103B30007A7640F2B4542546FDF774FDFFF73AFB60
:103B4000FFF7E8F8FFF7B2F8FFF796FAFFF778FA11
:103B5000FFF78AF8FFF766F9FFF7EAF9FC48FEF786
:103B600065FA0021FA48FEF747FC0421F848FEF701
:103B700043FC0821F648FEF73FFC0C21F448FEF711
:103B80003BFCF448FEF752FA0021F248FEF734FC01
:103B90000421F048FEF730FC0821EE48FEF72CFC2B
:103BA000FFF7A0FFEB480068C4634FF49670FDF781
:103BB000F7FBFFF74DFFE848FDF7E9F900F086FB5A
:103BC00000F0FCFBFFF7ACFFE44908604FF0000A8F
:103BD00016E00AEBCA0101EB4101E14A02EB810068
:103BE0009FEDE01ADFEDE00AB1EE040A4FF4FA634C
:103BF0001A460321FFF760FA0AF101001FFA80FA62
:103C0000BAF1040FE5DB00BF00BF00BF0027B946D3
:103C100000200690079008900990D448006805900D
:103C200014216846FCF797FB9FEDCE8A0122910292
:103C3000CF48FDF7E1FC00224FF40061CC48FDF7CE
:103C4000DBFCC820FDF7ACFB15E2C4480068C07A75
:103C500002287DD1C1480068807A012820D1002047
:103C6000FFF72CFFC34880ED030A80ED020A80EDC8
:103C7000010A80ED000A0320FFF70CFFBD48D0EDDC
:103C8000000A30EE200A80ED000A0320FFF702FF51
:103C9000B848D0ED020A30EE200A80ED020A65E055
:103CA000AE480068807A022812D10120FFF706FF93
:103CB000B04880ED030A80ED000A0320FFF7FEFE06
:103CC000B1EE400AAB4880ED020A80ED010A4DE0FA
:103CD000A2480068807A032848D1FFF7EFFEF1EE92
:103CE000401A0220FFF7EAFE71EE801A0020FFF76B
:103CF000E5FE31EE800A9F4880ED000A0320FFF7C1
:103D0000DDFEF0EE401A0220FFF7D8FE71EE801AB9
:103D10000020FFF7D3FE31EE800A964880ED010ABD
:103D20000320FFF7CBFEF0EE401A0220FFF7C6FE9D
:103D300071EEC01A0020FFF7C1FE31EE800A8D48F7
:103D400080ED020A0320FFF7B9FEF1EE401A00E011
:103D500087E10220FFF7B2FE71EEC01A0020FFF7E4
:103D6000ADFE31EE800A834880ED030A4FF0000A71
:103D700057E0804800EB8A0090ED000ABDEEC00AD3
:103D800010EE100A0AEB8A017B4A02EB41014988D6
:103D9000401A0FFA80F8B0450EDD0AEB8A00114692
:103DA00001EB4000B0F90200304400EE100AB8EE1A
:103DB000C00AF0EE408A18E0704280450EDA0AEB45
:103DC0008A006D4901EB4000B0F90200801B00EE53
:103DD000100AB8EEC00AF0EE408A06E0654800EB33
:103DE0008A0090ED000AF0EE408A0AEB8A01624AEE
:103DF00002EB4101B1F9021000EE901AF8EEE00A70
:103E0000B0EE600A0AEBCA0101EB4101544A02EB31
:103E10008100F0EE680A00F03DF90AF101001FFA96
:103E200080FABAF1050FA4DB4C480068B0F9020033
:103E300000EE100AB8EEC00ADFED500A30EE209A0C
:103E400046480068B0F9020000EE100AB8EEC00A59
:103E5000B0EE408ABDEEC80A10EE104A3D208DF843
:103E60001500002C1FDA14F5167F00DA444C2046AA
:103E700000F0DFFC41EC1B0B9FED420B53EC102BD1
:103E800000F050FB41EC1A0B00F0A4FC044604F2D5
:103E9000DC542D208DF81500201E01DB014600E0CA
:103EA00041420C4620E0B4F5167F01DD4FF4167454
:103EB000204600F0BEFC41EC1B0B9FED320B53EC97
:103EC000102B00F02FFB41EC1A0B00F083FC044692
:103ED00004F2DC542B208DF81500201E01DB014676
:103EE00000E04142A1F1280440F26C70844201DDFF
:103EF000044604E040F24C40844200DA0446201EAE
:103F000001DB014600E041420C46A4F2B45000F04F
:103F100090FC41EC1D0B9FED1D0B53EC102B00F0A2
:103F20009FFC41EC1B0B284600F083FC41EC1C0B72
:103F300053EC1B2B00F04EFA41EC1A0B00F04AFC3C
:103F40000546B5F5E16F25DD4FF4E16527E000009A
:103F5000B802002000030020900200200000002092
:103F60006C00002000000000CDCCCC3D3C4C000893
:103F7000001C0240800200201C02002000007A4445
:103F8000A8FDFFFF333333333333F33F7B14AE47A6
:103F9000E17A843FB5F5966F01DA4FF4966500BF7C
:103FA000274600224FF480613348FDF725FB0122AC
:103FB000D1023148FDF720FB4FF00A090DE00A203D
:103FC00097FBF0F100FB1170303005A901F80900F2
:103FD0000A2097FBF0F7A9F10109002FEFD127483C
:103FE0000068B0F9080000EE100AB8EEC00ADFED74
:103FF000240AB4EEE00AF1EE10FA08DD4FF49B60FB
:104000002049096848631F49096888631FE01B4805
:104010000068B0F9080000EE100AB8EEC00ADFED43
:104020001A0AB4EEE00AF1EE10FA08D24FF49B60DF
:1040300014490968486313490968886307E04FF425
:104040009B601049096848630E49096888630A2023
:104050008DF827000B480068C5630520FDF7A0F91F
:1040600009E006480068C07A032804D10F220749F6
:104070000748FEF791FCE8E5001C02400000002024
:104080000000164300030020000016C36202002057
:104090004803002000B50146F0EE401AB0EE602A59
:1040A000C1ED081A81ED052A32EE610A81ED0B0A95
:1040B00091ED140AB5EEC00AF1EE10FA17D091EDA9
:1040C0000B0AB5EEC00AF1EE10FA02DD91ED0B0A13
:1040D00003E091ED0B0AB1EE400AD1ED140AB4EE03
:1040E000E00AF1EE10FA02DD9FED6E0A00BD91EDDF
:1040F000150AB5EEC00AF1EE10FA17D091ED0B0AD1
:10410000B5EEC00AF1EE10FA02DD91ED0B0A03E004
:1041100091ED0B0AB1EE400AD1ED150AB4EEE00ABA
:10412000F1EE10FA02D29FED5F0ADFE7886D0328F7
:1041300042D191ED000AD1ED0B0A20EE200A81ED6B
:104140000C0A91ED0D0AD1ED010A91ED0B1A00EE6A
:10415000810A81ED0D0A91ED0B0AD1ED0A0A30EECC
:10416000600AD1ED020A20EE200A81ED0E0AD1ED9F
:10417000180AF8EE600AB0EE600A01F13400FFF7A9
:104180004FFC91ED0C0AD1ED0D0A30EE200AD1ED75
:104190000E0A30EE200A81ED0F0AD1ED170AF8EE73
:1041A000600AB0EE600A01F13C00FFF739FC91EDC6
:1041B0000F0A81ED100A54E0886D042851D191ED69
:1041C0000B0AD1ED0A0A30EE600AD1ED000A20EEAA
:1041D000200A81ED0C0A91ED010AD1ED0B0A20EEC7
:1041E000200A81ED0D0A91ED0B0AD1ED0A0AB0EE1D
:1041F000001A01EE600AD1ED090A30EE200AD1ED75
:10420000020A20EE200A81ED0E0AD1ED180AF8EE1E
:10421000600AB0EE600A01F13400FFF701FC91ED95
:104220000C0AD1ED0D0A30EE200AD1ED0E0A30EE67
:10423000200A81ED110A91ED130AD1ED110A30EE39
:10424000200A81ED120AD1ED170AF8EE600AB0EEED
:10425000600A01F14800FFF7E3FB91ED120A81EDDE
:10426000130A91ED0A0A81ED090A91ED0B0A81ED1D
:104270000A0A91ED070A81ED060A91ED080A81ED1F
:10428000070A91ED040A81ED030A91ED050A81ED1B
:10429000040A886D032802D191ED0F0A26E791EDFB
:1042A000120A23E7000000000366C265816580ED05
:1042B000000AC0ED010A80ED021A704780ED000A85
:1042C000C0ED010A80ED021A7047000010B52422EB
:1042D0000249A1F12400FEF719FF10BDCA04002015
:1042E00000B101B970470278437842EA0322C2F371
:1042F0000A020A804278D210837842EA4312C2F35B
:104300000A024A8082789211C37842EA83020379D2
:1043100042EA8322C2F30A028A8002795210437968
:1043200042EAC312C2F30A02CA804279C2F30112FE
:104330008A72427912119308CB728279C37942EA68
:10434000032212B28A81027A437A42EA032213B22A
:1043500001F10C02CB81827AC37A42EA032213B2C2
:1043600001F10C020B82037B8B74437BCB74827B49
:10437000C37B42EA03228A82027C437C42EA032214
:1043800012B20A810A88A2F5806212B20A804A88B3
:10439000A2F5806212B24A808A88A2F5806212B2C7
:1043A0008A80CA88A2F5806212B2CA800A89A2F500
:1043B000806212B20A8100BF94E7000004480068DE
:1043C000406940F080000249096848617047000078
:1043D0004803002010B591EA030F48BF83F0004363
:1043E00000F14483841A71EB030C05D2121943EBDC
:1043F0000C03001B61EB0C01DFF824E14FEA1154C0
:10440000A4EB135C1EEA430F18BF9EEA445F73D00F
:1044100023EA0E03DCF1200E21EA045143F4801359
:1044200032D322FA0CFE10EB0E0023FA0CFE41EB05
:104430000E01CCF1200E03FA0EFE10EB0E0051F12E
:104440000001B1F5801FCCF1200E32D201EB0451F6
:1044500012FA0EF2BDE8104058BF7047401C38BF3A
:104460005FEA420218BF7047002814BF20F0010025
:1044700041F100014FEA410313F5001F38BF7047B7
:10448000A1F1C04100F0E4BA012A43EB0302ACF110
:10449000200CDCF11F0E32BF4FF0000E23FA0CF39C
:1044A00010EB030041EB0451B4EB115FD0D0A1EB52
:1044B000045101F5801149085FEA300001EB045115
:1044C0000ED350F1000038BF12FA0EFE08D1BDE83D
:1044D0001040C9E7401C38BF5FEA4202CAD1C3E7B7
:1044E000BDE810404FEA410313F5001F38BF704785
:1044F000A1F1C04100F0ACBA9EEA445F08D011EAD5
:104500005E0FBDE8104004BF01F00041002070477D
:10451000BDE8104070B500F04DFA00BF64FBBE3E30
:104520000000E0FF2DE9C04130B4DFF8A0C23CEA52
:10453000111418BF3CEA131400F0EC8081EA030563
:104540001CEA111444EAD57418BF1CEA131500F0D4
:10455000C780A4EB05044FF0004545EAC12145EAB8
:10456000C32341EA505143EA525304F17F74994204
:1045700004F500344FEAC0204FEAC22208BF90423F
:1045800000F09C804FEA13650FF24016765D4FEA0B
:10459000134506FB05F7C7F1807706FB07F74FEADF
:1045A000D737A7FB03687642C8F58038A7FB06CE4D
:1045B00038BFA8F1010807FB08E64FF0000EA6FB84
:1045C000028CE6FB03CEDCF1000CCEF1004E38BFCE
:1045D000AEF1010EA6FB0C584FF000074FF000059E
:1045E000E6FB0E87A1FB08C6A0FB07CE16EB0E0666
:1045F00045F10005E1FB076515F1E04E7EBFA4F52E
:1046000080345FEA46066D4116F1800745F10005EA
:104610004FEA17274FEA066647EA0567A6F1DE4626
:10462000B6F1805F4FEA15251FD9384624F0010CFA
:1046300005EBC471BCF1FE6F01EB0C1102D8F0BCAC
:10464000BDE8008124425CBF01F5801E9EEAC47F64
:1046500002D4F0BCBDE80081244238D4F0BCA1F102
:10466000C041BDE8004100F0F3B94FEAD22242EA6E
:1046700043524FEAD323A7FB02864FEAD02040EAF9
:10468000415007FB03661EEA0E0F4FEAD12105FBDE
:10469000026658BFA6EB0056B6EB00564FEA520E24
:1046A0004EEAC37E18EB0E0E56EB530EBDD518EB3B
:1046B00002085E417F1C55F10005B6E74FF48015F6
:1046C0004FF000074FF000064FF00008ADE7F0BCD8
:1046D0004FF0000001F1C04101F00041BDE8008150
:1046E00011EA0C1F0CEA131500D00CE013EA0C1FA2
:1046F00000F025804FF00000F0BC81EA030101F0DA
:104700000041BDE80081F0BCBDE8004181EA030141
:1047100000F09EB9F0BCBDE8004170B500F04AF968
:10472000097EFC3E00F007B881EA03014FF000006B
:1047300001F00041704781EA030100F089B9F0BC43
:10474000BDE800414FF0000021497047FFFDFBF933
:10475000F7F5F4F2F0EEEDEBE9E8E6E4E3E1E0DEB4
:10476000DDDBDAD8D7D5D4D3D1D0CFCDCCCBCAC826
:10477000C7C6C5C4C2C1C0BFBEBDBCBBBAB9B8B74D
:10478000B6B5B4B3B2B1B0AFAEADACABAAA9A8A840
:10479000A7A6A5A4A3A3A2A1A09F9F9E9D9C9C9B0E
:1047A0009A999998979796959594939392919190B9
:1047B0008F8F8E8E8D8C8C8B8B8A8989888887874A
:1047C0008685858484838382828181800000FF07BF
:1047D0000000F87F4FEA41034FEA5353A3F580638B
:1047E000D3F11E03C8BFD3F1210C0CDD4FF0004202
:1047F00042EAC12242EA505232FA03FC8CEAE17CDE
:10480000ACEBE1707047102BC4BF0020704703F57C
:10481000787CBCF1FF3F04D06FF0004282EA2100B7
:10482000704770B500F0C6F84992248000207047A8
:10483000F2E710F0004248BF4042B0FA80F310FAAD
:1048400003F10AD0C3F11D0303F580634FEA415021
:1048500002EB035202EBD12170474FF0000070478A
:10486000DFF848C170B51CEA111E1EBF1CEA131503
:104870009EEA0C0F95EA0C0F00F06F8081EA0304AA
:1048800023EA4C134EEAD47E21EA4C1141F4801104
:1048900043F48013AE44A1FB024CA0FB0365AEF1D0
:1048A0007F7E361955EB0C05A1FB034C4CF1000340
:1048B000A0FB021C16EB0C06654153F100030942F4
:1048C00018BF46F0010613F4007F0BD14FEA033105
:1048D0004FEA0530340341EA155140EA16506FF0B3
:1048E00003020AE04FEAC3214FEAC520F40241EA7D
:1048F000555140EA56506FF0020202EB2E4201EB96
:10490000025585EACE710AD05FEA440C18BF24F044
:10491000004450F1000041F1000120EAD47040F25F
:10492000FE7C624500D270BDA84214BF4FF08044A7
:104930004FF04044002E08BF0024BEF1806FA8BF96
:10494000A1F1C041BDE8704080F282804FF00000CC
:1049500001F1C04101F0004170479EEA0C0F0CEAE2
:10496000131518BF95EA0C0F06D04FF0000081EA2E
:10497000030E0EF0004170BD00F01CF88900013EEE
:1049800000F007B800F009B84FEA430C5FEA5C5C3E
:1049900008D081EA030100F05BB84FEA410C5FEAFE
:1049A0005C5CF6D14FF00000014970470000FF0742
:1049B0000000F87F0EF1020E2EF0030E5EF8046B7D
:1049C000364205D4012A43EB030515F5001F12D822
:1049D000012841EB010C1CF5001F0CD80ED14FEA49
:1049E000D17C15F5001F0CEB4C0C0CF1020C08BF30
:1049F0004CEBD37C04E04FF0080C01E04FEAD37C91
:104A00000CEB4C0526FA05F606F00706B6F1040C89
:104A100006D20EEB860CBDE870404CF0010C6047EE
:104A2000DFE80CF0090B02024FF000414FF00000EC
:104A3000A1F5002170BD19461046012851EB010473
:104A400018BFD4F5001484BF002001F0004170BDF0
:104A50000808A0F500114FEA3101704710B591EA3E
:104A6000030F48BF83F000433FF5BCAC841A71EBE1
:104A7000030C07D212198CF0004C43EB0C03001B03
:104A800061EB0C01DFF8A4E14FEA1154A4EB135CD5
:104A90001EEA430F18BF9EEA445F00F0B08023EA8D
:104AA0006E03524221EA0451C3EB6E0338BF5B1E12
:104AB000DCF1200E25D322FA0CFE10EB0E0043FA97
:104AC0000CFE41EB0E01CCF1200E03FA0EFE10EBB2
:104AD0000E0051F10001CCF1200E29D412FA0EF291
:104AE00001EB0451BDE8104058BF7047401C1CBF8B
:104AF000B2F1004F704700280CBF491C20F00100A4
:104B0000704712EB020E43EB030218BF4FF0010E89
:104B10004EEA4202ACF1200CDCF11E0E54D943FAED
:104B20000CFE10EB0E0051F1FF31CCF11E0ED5D56D
:104B30000EF1010E12FA0EFE404141EB010101EBB4
:104B4000445C5FEA5C5C10D910EBDE7001EB045151
:104B500038BFBEF1004FBDE8104018BF70470028B5
:104B60000CBF491C20F00100704730D24FEAD42C12
:104B700011F5001124F400641BD0B1FA81F20B3A54
:104B8000A41AA41ED2F12003914030FA03F3194372
:104B9000904001EBCC71002C01EB0451BDE81040BA
:104BA000A8BF704701F1C0414FF0000001F0004183
:104BB0007047B0FA80F310FA03F100D110BDE41A87
:104BC000173C4805C90AE4E701EB045110BD491040
:104BD00001EB0451BDE810404FEA300002E04FF015
:104BE000000170474A0008BF0042F8D0B2F5001F2C
:104BF00028BF704701F000414FF0000070479EEA67
:104C0000445F07D011EA5E0FBDE8104004BF0021E9
:104C100000207047BDE8104070B5FFF7CBFE00BF25
:104C200040DFF63E83F00041104670470000E0FF91
:104C30004FF04070E1EE100A7047000040000000A5
:104C4000000610160006101600000000000000000C
:104C50000102030406070809000000000102030422
:104C6000804C00080000002054000000C40100082F
:104C7000D44C000854000020FC0A0000E0010008A9
:104C80000000000000000000000000006E6F2070B7
:104C90006963747572650000000000000000000088
:104CA0000000000000000000000000000000000004
:104CB00000000000000000000000000000000000F4
:104CC00000000000010000001000000000000000D3
:044CD0000024F400C8
:040000050800018965
:00000001FF
