:020000040800F2
:100000008009002029020008AB2C0008F128000814
:10001000A92C00081F040008053500080000000096
:10002000000000000000000000000000292D000872
:100030008705000800000000C52C00082B2D0008D3
:10004000430200084302000843020008430200087C
:10005000430200084302000843020008430200086C
:10006000430200084302000843020008430200085C
:10007000BD040008430200084302000843020008D0
:10008000430200084302000843020008430200083C
:10009000210400084302000843020008430200084C
:1000A000430200084302000843020008430200081C
:1000B000430200084302000843020008430200080C
:1000C00043020008430200084302000843020008FC
:1000D0004302000845340008430200085134000878
:1000E00043020008430200084302000843020008DC
:1000F00043020008430200084302000843020008CC
:1001000043020008430200084302000843020008BB
:1001100043020008430200084302000843020008AB
:10012000430200084302000843020008430200089B
:10013000430200084302000843020008430200088B
:10014000430200084302000843020008430200087B
:100150004302000843020008C904000843020008E3
:10016000430200084302000843020008430200085B
:100170004302000843020008430200080000000098
:10018000430200084302000800F002F800F03CF8C7
:100190000AA090E8000C82448344AAF10107DA45E2
:1001A00001D100F031F8AFF2090EBAE80F0013F0F8
:1001B000010F18BFFB1A43F00103184794400000D9
:1001C000B4400000103A24BF78C878C1FAD852076A
:1001D00024BF30C830C144BF04680C6070470000C1
:1001E0000023002400250026103A28BF78C1FBD840
:1001F000520728BF30C148BF0B6070471FB504F0DD
:100200000FF81FBD10B510BD00F0CFF81146FFF775
:10021000F5FF03F0FDF900F0EDF803B4FFF7F2FF8E
:1002200003BC00F0F5F80000094880470948004782
:10023000FEE7FEE7FEE7FEE7FEE7FEE7FEE7FEE796
:10024000FEE7FEE704480549054A064B70470000F3
:10025000C52D0008890100088003002080090020C6
:10026000800500208005002053EA020C00F0698020
:100270002DE9F04B4FF00006002B1FBFB3FA83F5BA
:1002800003FA05F424FA05F65E4012BF1643B2FAEB
:1002900082F502FA05F4C5F120051EBF22FA05FC1D
:1002A00044EA0C04203556EA044C4FEA144418BFC3
:1002B000641C4FF000084FF00009904271EB030CF2
:1002C00039D3002919BFB1FA81F701FA07F6B0FA5C
:1002D00080F700FA07F6C7F120071EBF20FA07FCD7
:1002E00046EA0C062037B6FBF4FCA7EB0507103FE7
:1002F00007F01F0BCBF120060CFA0BFB2CFA06F6CD
:1003000044BFB3460026202FA4BF5E464FF0000B2B
:100310005BEA060C08BF4FF0010B19EB0B09ABFBB6
:10032000027C48EB0608C01B06FB02CC0BFB03CC8F
:1003300071EB0C01C1E70B46024641464846BDE859
:10034000F08B13B54FF000004FF00001AFF30080C9
:10035000BDE81C4070474FF0000200B513469446BC
:100360009646203922BFA0E80C50A0E80C50B1F10D
:100370002001BFF4F7AF090728BFA0E80C5048BF21
:100380000CC05DF804EB890028BF40F8042B08BFBF
:10039000704748BF20F8022B11F0804F18BF00F8BB
:1003A000012B7047704770477047754600F02CF876
:1003B000AE4605006946534620F00700854618B052
:1003C00020B5FFF73FFFBDE820404FF000064FF09B
:1003D00000074FF000084FF0000B21F00701AC467A
:1003E000ACE8C009ACE8C009ACE8C009ACE8C00999
:1003F0008D46704710B50446AFF300802046BDE837
:100400001040FFF70ABF000000487047200300209B
:1004100001491820ABBEFEE7260002007047FEE748
:10042000014800F092BA0000C000002038B50E4C20
:100430004FF4007525600025A560E560082525615D
:100440000A4C050A25706070080AA070E170100A55
:1004500020716271180AA071E3716B46224602494D
:10046000034800F0A5F838BD600000201800002007
:10047000C000002038B50E4C40F2FF152560002565
:10048000A560E560082525610A4C050A25706070A5
:10049000080AA070E170100A20716271180AA07138
:1004A000E3716B4622460249034800F081F838BDEB
:1004B0006000002018000020C0000020014800F06B
:1004C0001FBD000060020020014800F019BD0000BF
:1004D0000002002001680A4BCAB2103AA3FB0232A4
:1004E0001209084B9B5CC365032A04D96FF3090109
:1004F000091D816502E06FF309018165806D704718
:10050000ABAAAAAA30420008014600208A6A8B6979
:10051000002B0FD0B3F5005F1DD08AB3012A30D075
:10052000022A2ED0032A04D1C96A11F0807F00D09C
:10053000012070471AB1012A07D0022AF9D1C96AED
:1005400011F0807FF5D001207047C96AB1F1C07FFA
:10055000FAD1012070475AB1012A0BD0022A07D0E4
:10056000032AF7D1C96AB1F1C07FF3D101207047E6
:1005700001207047C96A11F0807FFAD001207047CE
:10058000FFE701207047704772B6FEE790F8202021
:10059000012A07D0022A05D0416A41F48021416234
:1005A0000120704700684269114341610020704793
:1005B00070B490F82040D0F800C0DCF808C0012CDE
:1005C00008D0022C06D0416A41F48021416270BCFF
:1005D000012070470CF080640CF000652C4302D1C0
:1005E0001CF0805F5FD0CCF3016CBCF1020F06D928
:1005F000416A41F40001416270BC0120704701244E
:1006000004FA0CF41C608B684FF4C0749BB1CD6885
:1006100004EB0C162B434D6843EAC5030568AB5148
:100620004FF4C273066803EB0C130D69F550097D96
:10063000012909D00DE00D88CB6804EB0C1643EAC4
:1006400045530568AB51EBE70168CD5845F480751B
:10065000CD501179D379557941EA036193791B041F
:1006600043EA052319434FF4C675036805EB0C15DF
:1006700059511178D37841EA0361937852781B0479
:1006800043EA022211434FF4C473026803EB0C13D4
:10069000D150016804EB0C100A5842F001020A50D4
:1006A00070BC00207047416A41F40011416270BC87
:1006B0000120704790F82020012A07D0022A05D097
:1006C000416A41F480214162012070474248D0F8DC
:1006D000002242F00102C0F80022D0F8002222F4E9
:1006E0007C52C0F80022D0F800224B6A42EA032272
:1006F000C0F800220A7D012302F01F0203FA02F271
:10070000D0F81C329343C0F81C32CB69D3B9D0F86F
:100710000C329343C0F80C32B1F80CC04B686CF348
:100720001F43D1F814C000EBCC0CCCF84032B1F828
:1007300008C00B686CF31F43D1F814C000EBCC0C5D
:10074000CCF84432CB69012B1AD1D0F80C321343C8
:10075000C0F80C32B1F800C04B686CF31F43D1F8FD
:1007600014C000EBCC0CCCF84032B1F808C0CB6818
:100770006CF31F43D1F814C000EBCC0CCCF844321E
:100780008B697BB1D0F804321343C0F804320B6993
:1007900073B1D0F814321343C0F81432096A012936
:1007A0000CD010E0D0F804329343C0F80432EEE7E6
:1007B000D0F814329343C0F81432EFE7D0F81C128B
:1007C0001143C0F81C12D0F8001221F00101C0F84A
:1007D000001200207047000000640040704710B411
:1007E00090F820C0BCF1010F09D0BCF1020F06D077
:1007F000416A41F48021416210BC0120704739B147
:10080000D0F800C0DCF810C01CF0030F7DD006E06B
:10081000D0F800C0DCF80CC01CF0030F7BD04FF404
:10082000D87C04680CEB011C54F80C4004F0040460
:100830009460002C7DD0046854F80C40E4085460A7
:10084000046854F80CC00CF0020CC2F80CC04FF451
:10085000DA7C04680CEB011C54F80C4004F00F0423
:100860001461046854F80C40C4F3072494610468CC
:1008700054F80CC04FEA1C4CC2F814C04FF4DC72A0
:10088000D0F800C002EB01125CF802C083F800C08F
:10089000D0F800C05CF802C04FEA1C2C83F801C0FD
:1008A000D0F800C05CF802C04FEA1C4C83F802C0CC
:1008B000D0F800C05CF80220120EDA704FF4DE723D
:1008C000D0F800C002EB01125CF802C083F804C04B
:1008D000D0F800C05CF802C04FEA1C2C83F805C0B9
:1008E000D0F800C05CF802C04FEA1C4C83F806C088
:1008F000D0F800C05CF80220120EDA71F9B100687D
:10090000016941F02001016102E00BE003E010E029
:1009100010BC00207047416A41F40011416210BCD4
:1009200001207047416A41F40011416210BC01206E
:100930007047046854F80C40640D146080E7006848
:10094000C16841F02001C160DEE72DE9F05F054696
:10095000002428684669D0F804908768D0F80CA075
:10096000D0F810B0D0F8188016F0010F54D017F05E
:10097000010F17D00121816017F0020F03D0284624
:1009800000F054FA0EE017F0040F02D04FF40064A8
:1009900008E017F0080F02D04FF4805402E0284618
:1009A00000F043FA17F4807F19D029684FF4807063
:1009B000886017F4007F03D0284600F039FA0EE073
:1009C00017F4806F02D044F4005408E017F4006F6D
:1009D00002D044F4804402E0284600F028FA17F4DC
:1009E000803F19D029684FF48030886017F4003FA9
:1009F00003D0284600F01EFA0EE017F4802F02D034
:100A000044F4004408E017F4002F02D044F480348A
:100A100002E0284600F00DFA16F0080F07D01AF091
:100A2000100F04D044F4007429681020C86016F038
:100A3000040F4FF0080707D01AF0080F04D02868F9
:100A4000C760284600F08CF916F0020F07D028681E
:100A5000C06810F0030F02D0284600F083F916F0AA
:100A6000400F07D01BF0100F04D044F480642968B5
:100A70001020086116F0200F07D01BF0080F04D0DB
:100A800028680761284600F09BF916F0100F07D080
:100A90002868006910F0030F02D0284600F091F991
:100AA00016F4003F08D019F0100F05D02968102067
:100AB0004860284600F086F916F4803F07D019F008
:100AC000080F04D028684760284600F0B4F916F4EF
:100AD000004F4AD019F0040F44D016F4807F04D0A0
:100AE00018F0010F01D044F0010416F4007F04D087
:100AF00018F0020F01D044F0020416F4806F04D005
:100B000018F0040F01D044F0040416F4006F29D04B
:100B100018F0700F26D008F07000402815D006DCC1
:100B2000102809D020280AD0302816D10AE05028F1
:100B30000ED0602811D10EE044F008040DE044F01E
:100B400010040AE044F0200407E044F0400404E00C
:100B500044F0800401E044F480742868816921F045
:100B600070018161296804204860002C05D0686A02
:100B7000204368622846FFF731FEBDE8F09F70B55C
:100B80000446002C03D094F8200010B104E00120AA
:100B900070BD204600F0A8F82068016841F001010E
:100BA000016000F04DFC0546206840684FF00506E6
:100BB00010F0010F11D100F043FC401B0A2807D9A7
:100BC000606A40F40030606284F82060012070BDEB
:100BD0002068406810F0010FEDD02068016821F016
:100BE0000201016000F02CFC05462068406810F00E
:100BF000020F11D000F024FC401B0A2807D9606ABC
:100C000040F40030606284F82060012070BD2068EC
:100C1000406810F0020FEDD1207E01283FD02068FF
:100C2000016821F080010160607E01283DD02068CC
:100C3000016821F040010160A07E01283BD02068BE
:100C4000016821F020010160E07E012839D0206890
:100C5000016841F010010160207F012837D0206831
:100C6000016821F008010160607F012835D020680B
:100C7000016821F004010160E168A068626908432D
:100C80002169114308436168491E08432168C8610E
:100C900000206062012084F82000002070BD2068E0
:100CA000016841F080010160BEE72068016841F001
:100CB00040010160C0E72068016841F02001016047
:100CC000C2E72068016821F010010160C4E72068D4
:100CD000016841F008010160C6E72068016841F041
:100CE00004010160C8E7000010B586B00446142175
:100CF0006846FFF730FB17492068884227D116481D
:100D00000021026842F000720260006800F000708A
:100D1000059011481038026842F00802026000682D
:100D2000022200F0080005900320CDE90210CDE971
:100D30000002092004906946084800F061FA002288
:100D40001146142000F0ECFB142000F0DBFB06B091
:100D500010BD00000064004040380240000C02401A
:100D60007047000000B58BB001AB03AA0021FFF76C
:100D700036FD0398A0F2012006281AD80E49C0B209
:100D800000EB800248700D4901EB420031F812304F
:100D90000381BDF804305BBA21F81230BDF80610AB
:100DA00049BA4180BDF8081049BA81809DF80A10FF
:100DB00081710BB000BD0000000000207800002011
:100DC00070477047704770B5044694F820000128BA
:100DD00005D0606A40F400206062012070BD0220EE
:100DE00084F820002068016821F00101016000F012
:100DF00027FB05462068406810F0010F12D000F074
:100E00001FFB401B0A2808D9606A40F4003060626A
:100E1000052084F82000012070BD2068406810F093
:100E2000010FECD10020606270BD704770477047C1
:100E300070477047704770472DE9F0410446A66D32
:100E400000F0FEFA054694F835000027022806D087
:100E50008020606584F834700120BDE8F08120684E
:100E6000016821F0160101602068416921F08001CC
:100E70004161206C08B9A06C20B12068016821F0A4
:100E8000080101602068016821F00101016020680B
:100E9000006810F0010F12D000F0D2FA401B0528B4
:100EA00008D920206065032084F8350084F8347068
:100EB000BDE8F0812068006810F0010FECD194F8D3
:100EC0005C003F2101FA00F0B060012084F8350099
:100ED00084F834700020BDE8F08190F835100229C4
:100EE00003D08021416501207047052180F835102D
:100EF0000068016821F001010160002070470000D6
:100F00002DE9F84304464FF00008CDF800807648FC
:100F10004FF416510068B0FBF1F7A56D2E6894F8F8
:100F20005C00082101FA00F0304211D0206802680C
:100F300012F0040F0CD0026822F00402026094F850
:100F40005C0001FA00F0A860606D40F0010060658F
:100F500094F85C004FF0010909FA00F0304209D022
:100F60002168496911F0800F04D0A860606D40F0DD
:100F70000200606594F85C1004208840304209D07B
:100F80002168096811F0020F04D0A860606D40F07C
:100F90000400606594F85C1010208840304224D032
:100FA0002168096811F0080F1FD0A8602068016847
:100FB00011F4802F0DD0006810F4002F04D0A16C24
:100FC00099B12046884710E0216C71B120468847CE
:100FD0000BE0016811F4807F03D1016821F0080162
:100FE0000160216C09B12046884794F85C102020EC
:100FF0008840304251D02168096811F0100F4CD060
:10100000A86094F8350005280DD02068016811F417
:10101000802F32D0006810F4002F29D0E16B59B333
:101020002046884739E02068016821F016010160F8
:101030002068416921F080014161206C08B9A06CF1
:1010400020B12068016821F00801016094F85C007B
:101050003F2101FA00F0A86084F8359084F83480CC
:10106000216D00293ED001B02046BDE8F04308477D
:10107000616C09B1204688470FE0016811F4807F58
:1010800007D1016821F01001016084F8359084F8DF
:101090003480E16B09B120468847606D002821D07B
:1010A000606D10F0010F15D0052084F83500206820
:1010B000016821F0010101600098401C0090B842D5
:1010C00004D82068006810F0010FF5D184F835903D
:1010D00084F83480E16C002904D001B02046BDE8DA
:1010E000F0430847BDE8F8834C0000202DE9F041AB
:1010F000044600F0A5F90546DCB1022084F835006D
:10110000002684F834602068016821F00101016044
:101110002068006810F0010F13D000F091F9401B17
:10112000052809D920206065032084F83500BDE832
:10113000F0810120BDE8F0812068006810F0010F07
:10114000EBD121680868234A1040A3686268D4F88C
:1011500010C01A43E36843EA0C031A4363691A4355
:10116000A3691A43E3691A43236A1A431043626A64
:10117000042A03D1236BE26A1A43104308602068F3
:10118000406920F00701606A40EA01050127042850
:101190000ED1A06A0543E06A50B12046FFF7B4F9CA
:1011A00030B14020606584F835700120BDE8F081E1
:1011B000206845612046FFF78DF994F85C103F22C6
:1011C00002FA01F18160666584F835700020BDE89F
:1011D000F08100003F8010F070B5044600F030F957
:1011E0000546B4F1FF3F02D004480078044400F003
:1011F00027F9401BA042FAD370BD00004000002038
:101200002DE9F84F0022DFF81492DFF814A2DFF87E
:1012100014B24FF0010E03274FF00F080EFA02FC34
:101220000B6803EA0C0363457DD10C7904F00304D9
:10123000012C01D0022C14D18568540007FA04F661
:10124000B543CE6806FA04F42C438460446824EA6B
:101250000C0C0C79C4F30014944044EA0C0CC0F854
:1012600004C0D1F804C037EA0C0C0CD0C4684FEAB3
:10127000420C07FA0CF5AC438D6805FA0CFC4CEAFD
:10128000040CC0F80CC091F804C00CF0030CBCF1C5
:10129000020F12D14FEAD20C00EB8C04256A4FEA00
:1012A000427C4FEADC6C08FA0CF6B5430E6906FA8C
:1012B0000CFC4CEA050CC4F820C004684FEA420C50
:1012C00007FA0CF5AC430D7905F0030505FA0CFCA3
:1012D0004CEA040CC0F800C0D1F804C01CF4403F34
:1012E0007DD0D9F800C04CF4804CC9F800C0D9F8C2
:1012F00000C00CF4804CCDF800C022F0030C0CF1BF
:10130000804505F59835D5F808C89407240F08FAE4
:1013100004F62CEA0606A0F1804CBCF5003C64D033
:10132000A0F1804C00E05AE0BCF5013C60D0A0F197
:10133000804CBCF5023C5ED0A0F1804CBCF5033C77
:101340005CD0A0F1804CBCF5043C5AD0A0F1804C9C
:10135000BCF5053C58D0A0F1804CBCF5063C56D0FD
:10136000A0F1804CBCF5073C54D04FF0080C0CFAAF
:1013700004FC4CEA060CC5F808C8DAF800C02CEAF0
:10138000030C4C6814F4803F01D04CEA030CCAF8FB
:1013900000C0254CD4F800C02CEA030C4D6815F4AD
:1013A000003F01D04CEA030CC4F800C0DBF800C0D9
:1013B0002CEA030C4C6814F4801F01D04CEA030C97
:1013C000CBF800C0194CD4F800C02CEA030C4D68CF
:1013D00015F4001F01D04CEA030CC4F800C0521CE5
:1013E000102AFFF41BAFBDE8F88F4FF0000CBEE7EA
:1013F0004FF0010CBBE74FF0020CB8E74FF0030CC5
:10140000B5E74FF0040CB2E74FF0050CAFE74FF033
:10141000060CACE74FF0070CA9E700004438024087
:10142000003C0140083C0140043C01400C3C0140B0
:10143000002A01D081617047090481617047000072
:101440000148806870470000400000200248816821
:1014500002781144816070474000002010B50B48AD
:10146000016841F400710160016841F4806101602C
:10147000016841F480710160032000F085F80F20BD
:1014800000F006F800F026F8002010BD003C0240F5
:1014900070B504460D4D4FF47A712878B1FBF0F029
:1014A0000B490968B1FBF0F000F0DEFB08B1012048
:1014B00070BD102C07D200222146501E00F030F8DB
:1014C0006C60002070BD012070BD00004000002055
:1014D0004C0000200A4808B5016841F480410160D1
:1014E000006800F4804000900548001F016841F04A
:1014F00080510160006800F08050009008BD00003D
:101500004438024000280ADB00F01F01012202FAE1
:1015100001F14009800000F1E020C0F8001170479F
:1015200010B4184B1B68C3F30223C3F1070CBCF1C2
:10153000040F01D94FF0040C1C1D072C01D200230D
:1015400000E0DB1E012404FA0CFCACF1010C0CEAF7
:101550000101994004FA03F35B1E1A40114300286D
:1015600006DB00F1E020090180F8001410BC704790
:1015700000F00F0000F1E020090180F8141D10BCFC
:10158000704700000CED00E000F00700064A11680B
:101590004FF6FF03194041EA002040F0FD7040F093
:1015A00080601060704700000CED00E02DE9F0470E
:1015B00004460D46002C13D0DFF85491D9F80000F2
:1015C000EFB200F00700A8420DD289F80070D9F8F8
:1015D000000000F00700A84205D00120BDE8F08718
:1015E0000120BDE8F08720684A4E10F0020F14D0A9
:1015F00010F0040F03D0306840F4E05030602078E1
:1016000010F0080F03D0306840F46040306030685C
:10161000A16820F0F00008433060207810F0010F3E
:101620003ED060683C49012808D002280DD003282C
:101630000BD0096811F0020F28D00AE0096811F4F4
:10164000003F06D10120BDE8F087096811F0007F56
:1016500019D0316821F0030108433060FFF7F0FE34
:1016600080463068616800F00C00B0EB810F17D045
:1016700041F2883AFFF7E4FEA0EB0800504508D994
:101680000320BDE8F0870120BDE8F0870120BDE818
:10169000F0873068616800F00C00B0EB810FE9D191
:1016A000D9F8000000F00700A8420AD989F80070B4
:1016B000D9F8000000F00700A84202D00120BDE8E0
:1016C000F087207810F0040F05D03068E16820F42E
:1016D000E05008433060207810F0080F06D03068E2
:1016E000216920F4604040EAC100306000F042F817
:1016F00031680A4AC1F30311515CC84008490860C7
:1017000008480068FFF7C4FE0020BDE8F08700002D
:10171000003C0240083802400038024038420008CD
:101720004C00002044000020014800687047000081
:101730004C00002000B5FFF7F7FF04490968044A90
:10174000C1F38221515CC84000BD0000083802404E
:101750004842000800B5FFF7E7FF04490968044A5A
:10176000C1F34231515CC84000BD0000083802405E
:101770004842000810B51748006810F00C011648E0
:1017800016D0164B042912D0082911D1144C216807
:1017900001F03F02216811F4800F0AD02068C0F3E5
:1017A0008810A0FB03010023FEF75EFD09E0184648
:1017B00010BD21680023C1F38811A1FB0001FEF7D1
:1017C00053FD2168C1F30141491C4900B0FBF1F010
:1017D00010BD0000083802400024F400001BB700D0
:1017E000043802402DE9F84F0446002C12D020782E
:1017F000FB4E10F0010FA6F1040563D0301D016807
:1018000001F00C0104290CD0006800F00C0008283D
:1018100003D010E00120BDE8F88F306810F4800F8D
:1018200009D0286810F4003F4CD06068002849D1E6
:101830000120BDE8F88F6068B0F5803F14D0B0F5A6
:10184000A02F16D0286820F480302860286820F463
:1018500080202860606810B3FFF7F2FD0746286813
:1018600010F4003F0ED02DE0286840F4803028604E
:10187000F0E7286840F480202860286840F4803031
:101880002860E7E7FFF7DCFDC01B642802D90320CE
:10189000BDE8F88F286810F4003FF3D012E0FFF79E
:1018A000CFFD0746286810F4003F0BD0FFF7C8FDB6
:1018B000C01B642802D90320BDE8F88F286810F403
:1018C000003FF3D12078C74F10F0020F4FF000090E
:1018D00057D0C548016811F00C0F14D0006800F013
:1018E0000C00082803D1306810F4800F0BD0E0689A
:1018F00080B301203860FFF7A3FD8046286810F010
:10190000020F12D01EE0286810F0020F05D0E06828
:10191000012802D00120BDE8F88F2868216920F055
:10192000F80040EAC10028602BE0FFF789FDA0EB3A
:101930000800022802D90320BDE8F88F286810F0BB
:10194000020FF2D02868216920F0F80040EAC100B7
:10195000286016E0FFE7C7F80090FFF771FD8046AA
:10196000286810F0020F0CD0FFF76AFDA0EB08000A
:10197000022802D90320BDE8F88F286810F0020F72
:10198000F2D1207810F0080F35D09848DFF860A227
:101990006169C1B101210160FFF752FD8046DAF8AB
:1019A000000010F0020F26D1FFF74AFDA0EB08005F
:1019B000022802D90320BDE8F88FDAF8000010F001
:1019C000020FF1D017E0C0F80090FFF739FD804614
:1019D000DAF8000010F0020F0DD0FFF731FDA0EB98
:1019E0000800022802D90320BDE8F88FDAF80000C9
:1019F00010F0020FF1D1207810F0040F71D04FF0E9
:101A000000087C48006810F0805F0AD179480168BE
:101A100041F080510160006800F0805000904FF06C
:101A20000108DFF8D4B1DBF8000010F4807F1BD18F
:101A3000DBF8000040F48070CBF80000FFF700FDF9
:101A40008246DBF8000010F4807F0DD1FFF7F8FC30
:101A5000A0EB0A00022802D90320BDE8F88FDBF8CA
:101A6000000010F4807FF1D0A068DFF890B1012869
:101A700018D005281DD0DBF8000020F00100CBF8BD
:101A80000000DBF8000020F00400CBF80000A068A4
:101A900040B3FFF7D5FC8246DBF8000010F0020FE0
:101AA00014D03EE0DBF8000040F00100CBF800006D
:101AB000EDE7DBF8000040F00400CBF80000DBF8B5
:101AC000000040F00100CBF80000E0E7FFF7B8FCB1
:101AD000A0EB0A0141F28830814204D90320BDE81D
:101AE000F88F26E005E0DBF8000010F0020FEDD0E3
:101AF00017E0FFF7A5FC8246DBF8000010F0020FAC
:101B00000FD0FFF79DFCA0EB0A0141F28830814223
:101B100002D90320BDE8F88FDBF8000010F0020FB7
:101B2000EFD1B8F1010F04D13248016821F08051A2
:101B30000160A069F0B32C4909684FF0FF3801F04B
:101B40000C01082966D0022810D0C7F86090FFF772
:101B500077FC0446286810F0007F2BD0FFF770FC5C
:101B6000001B022851D90320BDE8F88FC7F8609008
:101B7000FFF766FC8146286810F0007F0CD0FFF765
:101B80005FFCA0EB0900022802D90320BDE8F88F12
:101B9000286810F0007FF2D1216AE069A26A084348
:101BA000616A08EB5202890141EA0241084394F854
:101BB0002C1000E055E040EA0160306001203866FA
:101BC000FFF73EFC0446286810F0007F49D1FFF77C
:101BD00037FC001B022813D90320BDE8F88F000052
:101BE000043802400000474208380240800E474255
:101BF00074380240403802400070004070380240A3
:101C0000286810F0007FE2D02BE0286810F0007FF9
:101C1000A4D126E0012822D03068E26900F48001D6
:101C200091421AD1226A00F03F01914215D147F644
:101C3000C071626A0140B1EB821F0ED1A26A00F44A
:101C4000403108EB5202B1EB024F06D194F82C1050
:101C500000F07060B0EB016F03D00120BDE7012000
:101C6000BBE70020B9E70000401EB0F1807F01D340
:101C7000012070474FF0E0214861044AF0201070C5
:101C800000208861072008610020704723ED00E0F4
:101C900090F83C20012A2CD0012280F83C20CA6810
:101CA0000023D1F808C022F4407242EA0C02D1F8B5
:101CB00004C022F4806242EA0C02D1F800C022F48F
:101CC000006242EA0C02D1F810C022F4805242EACB
:101CD0000C02D1F814C022F4005242EA0C02C96985
:101CE00022F4804211430268516480F83C300020A5
:101CF00070470220704730B490F83C20012A44D04D
:101D0000012480F83C40022280F83D200268D2F88D
:101D100004C093682CF0700C0D6845EA0C0CC2F8F6
:101D200004C00268A2F1804CBCF5803C20D0B2F126
:101D3000804F1DD0A2F1804CBCF5806C18D0A2F170
:101D4000804CBCF5006C13D0A2F1804CBCF5406C0B
:101D50000ED0A2F1804CBCF5823C09D0A2F1804C9F
:101D6000BCF5A03C04D0A2F1804CBCF5C05C04D111
:101D700023F0800349681943916080F83D400021B9
:101D800080F83C1030BC0020704730BC0220704707
:101D900010B50446002C03D094F83D0010B107E0C4
:101DA000012010BD002084F83C00204600F01EF801
:101DB000022084F83D00211D206801F00BF801206D
:101DC00084F8460084F83E0084F83F0084F8400020
:101DD00084F8410084F8420084F8430084F8440009
:101DE00084F8450084F83D00002010BD08B50C4A79
:101DF00001680C48914207D1016841F0010101607E
:101E0000006800F0010009E0074A914207D101682B
:101E100041F002010160006800F00200009008BD7E
:101E200000000140443802400004014090F83D1099
:101E3000012901D001207047022180F83D1000687F
:101E4000A0F18041B1F5803126D0B0F1804F23D090
:101E5000A0F18041B1F580611ED0A0F18041B1F5C3
:101E6000006119D0A0F18041B1F5406114D0A0F11A
:101E70008041B1F582310FD0A0F18041B1F5A031A0
:101E80000AD0A0F18041B1F5C05105D0016841F000
:101E90000101016000207047816801F007010629F7
:101EA000F8D0016841F001010160F3E770B5044624
:101EB000002594F83C00012818D0012684F83C60E5
:101EC000022084F83D002068826822F0770222F424
:101ED0007F4282600868502839D00EDC202854D018
:101EE00006DC002851D0102811D14EE0022070BD30
:101EF00030284AD040280AD13DE0602831D07028EF
:101F00000DD0B0F5805F03D0B0F5005F13D0012590
:101F100084F83D60002084F83C00284670BDCB6802
:101F20004A688968206800F0CAFF2068816841F02B
:101F300077018160ECE7CB684A688968206800F027
:101F4000BEFF2068816841F480418160E0E7CA6893
:101F50004968206801F0A2F85021206800F0BAFF1B
:101F6000D6E7CA684968206801F0ABF860212068AC
:101F700000F0B0FFCCE7CA684968206801F08EF82D
:101F80004021206800F0A6FFC2E722680146104603
:101F900000F0A0FFBCE7000070B586B00446142135
:101FA0006846FEF7D8F92A4A216800242948022504
:101FB000914222D1016841F001010160016801F004
:101FC00001010591016841F01001016000680126DE
:101FD00000F0100005904FF450600090CDE90154DE
:101FE000CDE9034669461C48FFF70AF9A8020090AC
:101FF000CDE901546946194823E0194A914224D198
:10200000016841F480710160016801F480710591FB
:10201000016841F0040101600068032600F004003B
:102020000590C4200090CDE90154CDE903466946EE
:102030000C48FFF7E5F840200090CDE901540A482C
:102040006946CDE90346FFF7DBF806B070BD000036
:102050000000014030380240000002400010024001
:1020600000040140002002400008024070B5044610
:102070000D46002694F83C0001280FD0012084F87A
:102080003C006AB1042A1FD0082A32D00C2A44D05E
:102090000126002084F83C00304670BD022070BD4F
:1020A0002946206800F01EFF2068816941F0080180
:1020B00081612068816921F0040181612068816962
:1020C0002A6911438161E4E72946206800F042FF54
:1020D0002068816941F4006181612068816921F48F
:1020E00080618161206881692A6941EA02218161F8
:1020F000CFE72946206800F069FF2068C16941F0F8
:102100000801C1612068C16921F00401C161206832
:10211000C1692A691143C161BBE72946206800F003
:1021200091FF2068C16941F40061C1612068C16903
:1021300021F48061C1612068C1692A6941EA0221F4
:10214000C161A6E710B50446002C03D094F83D0009
:1021500010B107E0012010BD002084F83C002046AB
:1021600000F01EF8022084F83D00211D206800F0D8
:1021700031FE012084F8460084F83E0084F83F00D8
:1021800084F8400084F8410084F8420084F8430059
:1021900084F8440084F8450084F83D00002010BD18
:1021A0007047000010B50446002909D004290AD060
:1021B00008290BD094F8410001280AD0012010BD55
:1021C00094F83E00F8E794F83F00F5E794F84000F3
:1021D000F2E70220D9B3042947D0082948D084F86F
:1021E00041000122206800F05BFE234A2068234959
:1021F000904201D0884203D1436C43F400434364CE
:102200002068904224D0B0F1804F21D0A0F18042CC
:10221000B2F580621CD0A0F18042B2F5006217D006
:10222000A0F18042B2F5406212D0884210D0A0F1F5
:102230008041B1F5A0310BD0A0F18041B1F5C05182
:1022400006D0016841F001010160002010BD09E0E5
:10225000816801F007010629F7D0016841F001010A
:102260000160F2E784F83E00BBE784F83F00B8E77E
:1022700084F84000B5E70000000001400004014080
:1022800070477047F8B5044622681068D1685369F2
:1022900000F00F0CBCF1000F0AD110F0200F07D096
:1022A00011F0200F04D02046BDE8F84000F057BFE1
:1022B0000025BCF1000F75D003F0010C01F49076FD
:1022C0005CEA06066ED010F0010F06D011F4807F94
:1022D00003D0226C42F00102226410F0040F06D0F9
:1022E00013F0010F03D0226C42F00202226410F0BE
:1022F000020F06D013F0010F03D0226C42F004024B
:10230000226410F0080F08D001F0200252EA0C02FB
:1023100003D0226C42F008022264226C002A35D0DD
:1023200010F0200F05D011F0200F02D0204600F051
:1023300016FF20684069C0F38010216C11F0080F6F
:1023400000D148B3204600F0D6FE2068406910F066
:10235000400F1CD02068143050E8001F21F04001CD
:1023600040E80012002AF5D1A06B60B15C4901651C
:10237000A06BFEF7B2FD002808D0A06B016D01B084
:10238000BDE8F04008472046FFF77BFFF8BD204638
:10239000FFF777FFF8BD05E0FFE72046FFF771FF85
:1023A0002564F8BD236B012B7ED110F0100F7BD07C
:1023B00011F0100F7ED010685068009050694FF0F7
:1023C000200310F0400F43D0A16B0868406880B232
:1023D0000028E6D0A28D8242E3D9E085C869B0F535
:1023E000807F2DD020680C3050E8001F21F48071D0
:1023F00040E80012002AF5D12068143050E8001F90
:1024000021F0010140E80012002AF5D120681430C3
:1024100050E8001F21F0400140E80012002AF5D1E9
:1024200084F83E30256320680C3050E8001F21F00E
:10243000100140E80012002AF5D1A06BFEF7FCFC69
:10244000A08DE18D401A81B22046FFF719FFF8BD3B
:10245000A08DE18D401A81B2E08D0028F7D00029CF
:10246000F5D020680C3050E8002F22F4907240E83C
:10247000002CBCF1000FF4D12068143050E8002F7C
:1024800022F0010240E8002CBCF1000FF4D184F8E6
:102490003E30256320680C3050E8002F22F01002F7
:1024A00040E80023002B00E004E0F3D12046FFF7D2
:1024B000E7FEF8BD10F0800F07D011F0800F04D0B8
:1024C0002046BDE8F84000F048BF10F0400FF0D0C3
:1024D00011F0400FEDD02046BDE8F84000F032BECC
:1024E000E730000870B50446002C04D094F83D0095
:1024F000002510B106E0012070BD84F83C50204654
:1025000000F022F8242084F83D002068C16821F4FE
:102510000051C160204600F087FE2068016921F467
:10252000904101612068416921F02A0141612068E0
:10253000C16841F40051C1602564202084F83D0049
:1025400084F83E00002070BD2DE9F04F87B00646AC
:1025500014216846FDF7FFFE4E4B316800244E48BB
:102560000225032207274FF000694FF4806A4FF4D9
:10257000807B99424CD1484914310B6843F01003D9
:102580000B60096801F010010591016841F002013A
:102590000160016801F002010591016841F001014B
:1025A00001600068CDE9024200F001000590802042
:1025B000CDE900059046694604973848FEF720FEAD
:1025C0002802CDE90005CDE9024869460497344860
:1025D000FEF716FE344D3348E5E802094020A5E831
:1025E00011044FF4403045F81449C5E9064BC5E9DC
:1025F00008042D48FEF77AFD08B1FDF7C5FF7563A5
:10260000002211462520AE63FEF78AFF25203CE01C
:10261000264B99423BD1204910310B6843F480236B
:102620000B60096801F480210591016841F0040103
:1026300001600068CDE9024200F0040005904FF40B
:102640004060CDE90005694604971948FEF7D8FDBA
:10265000154D184860352860C5E90194C5E9034A5D
:102660006C61C5E9064B4FF44030C5E908042846C3
:10267000FEF73CFD08B1FDF787FFB5630022114668
:102680002720AE63FEF74CFF2720FEF73BFF07B085
:10269000BDE8F08F001001403038024000040240D5
:1026A00000000240B86402400002002000480040E0
:1026B000000802402860024090F83E30202B01D0F4
:1026C0000220704759B152B190F83C30012B08D02C
:1026D000012380F83C300023036300F023BE012077
:1026E000704702207047000070B5454E04464FF415
:1026F0008055002229463046FEF79AFE414920685F
:10270000884274D14048002200F1080402804280CF
:102710008280C280207823280CD00A230B2204F167
:102720000B013A4800F07EF8002229463046FEF7B9
:102730007FFE5CE0012229463046FEF779FE324DED
:102740000121103D052001E005290BD0B1FBF0F37C
:10275000B1FBF0F200FB131305EB82021A44635C39
:1027600002F8013C491C89B20A29EDD326481038E9
:1027700000F0DEFE244C203C6060281D00F0D8FEF6
:10278000A0600A23062222A1204800F04BF80A2369
:102790000B2204F128011D4800F044F80A2303220B
:1027A0001DA11A4800F03EF860684FF47A75A842FF
:1027B0004FF00A034FF0020201DD18A100E018A15A
:1027C000124800F02FF8A0684FF00A03A8424FF01B
:1027D000020201DD11A100E011A10C4800F022F875
:1027E00009490A2301222039084800F01BF8BDE8F6
:1027F000704005490B2208310448FFF75DBF000017
:10280000001C024000100140200000207801002040
:10281000245243243A0000003D3D00002B000000FC
:102820002D0000002DE9F84304460E4615461F46CC
:1028300094F83D00202802D00220BDE8F883C6B1FC
:10284000BDB194F83C00012816D0012084F83C006A
:102850004FF00009C4F84090212084F83D00FEF7B5
:10286000EFFD8046A584E584A068B0F5805F06D0C2
:1028700007E00120BDE8F8830220BDE8F883206965
:1028800080B13546002684F83C90E08CB8B14346D0
:10289000002280212046009700F08EFD20B1032009
:1028A000BDE8F8830025EEE7A5B1216828784860E7
:1028B0006D1CE08C401EE084E08C0028E7D143468C
:1028C000002240212046009700F076FD48B1032009
:1028D000BDE8F88330882168C0F308004860B61C62
:1028E000E7E7202084F83D000020BDE8F88370472A
:1028F000FEE700000F4810B50D490160032141605B
:1029000000214FF410228160C0E903124FF400123D
:102910004261017641768176C17601774177FEF793
:102920002EF9002803D0BDE81040FDF72DBE10BDE4
:1029300000640040C0000020114808B5016841F45F
:1029400000110160016801F400110091016841F477
:10295000800101600068002200F4800000901146B0
:102960000C20FEF7DDFD0C20FEF7CCFD0022114609
:102970004620FEF7D5FDBDE808404620FEF7C2BD63
:102980003038024070B586B014216846FDF7E3FC8C
:1029900026480024016841F001010160016801F04E
:1029A00001010591016841F002010160016801F037
:1029B00002010591016841F008010160016801F020
:1029C00008010591016841F004010160016801F00E
:1029D00004010591016841F480710160016801F40E
:1029E00080710591016841F080010160016801F08A
:1029F00080010591016841F01001016000680C4EF2
:102A000000F010004FF4E0550590002229463046B2
:102A1000FEF70EFD01200095CDE901046946304620
:102A20000394FEF7EDFB06B070BD000030380240A5
:102A3000001C024010B596B000240F94109411941D
:102A4000129413941C2168461494FDF784FC2021F1
:102A500007A8FDF780FC354833490160A721C0E98C
:102A6000011444F61F61C0E9031444618461FFF757
:102A70008FF908B1FDF788FD4FF480500F900FA932
:102A80002A48FFF713FA08B1FDF77EFD2748FFF744
:102A900059FB08B1FDF778FD139413A9234814944A
:102AA000FFF729F908B1FDF76FFD602000904FF4A2
:102AB000FA60CDE901040394049405940022694668
:102AC0001A480694FFF7D2FA08B1FDF75DFD04221B
:102AD00069461648FFF7CAFA08B1FDF755FD082206
:102AE00069461248FFF7C2FA08B1FDF74DFD0C2206
:102AF00069460E48FFF7BAFA08B1FDF745FD07949D
:102B0000089409944FF400500A94CDE90B4007A9AA
:102B100006480E94FFF7BCF808B1FDF735FD0348F1
:102B2000FFF73AFA16B010BD00000140E80000209F
:102B300010B596B000240F9410941194129413942D
:102B40001C2168461494FDF706FC202107A8FDF718
:102B500002FC374835490160A721C0E9011444F659
:102B60001F61C0E9031444618461FFF711F908B1E2
:102B7000FDF70AFD4FF480500F900FA92C48FFF786
:102B800095F908B1FDF700FD2948FFF7DBFA08B118
:102B9000FDF7FAFC139413A925481494FFF7ABF83A
:102BA00008B1FDF7F1FC602000904FF47A70CDE998
:102BB0000104039404940594002269461C48069479
:102BC000FFF754FA08B1FDF7DFFC04226946184804
:102BD000FFF74CFA08B1FDF7D7FC4FF4FA6001900B
:102BE000082269461248FFF741FA08B1FDF7CCFC0C
:102BF0000C2269460E48FFF739FA08B1FDF7C4FC0C
:102C00000794089409944FF400500A94CDE90B40BE
:102C100007A907480E94FFF73BF808B1FDF7B4FC8D
:102C20000348FFF7B9F916B010BD000000040140D9
:102C3000300100200C4810B50A4901604FF4E13121
:102C40004160002181600C22C160C0E904128161F1
:102C5000C161FFF747FC002803D0BDE81040FDF735
:102C600093BC10BD00100140780100200C4810B545
:102C70000A4901600B494160002181600422C16062
:102C8000C0E904128161C161FFF72CFC002803D068
:102C9000BDE81040FDF778BC10BD000000480040C2
:102CA000BC010020A0860100FEE7FEE730B4034C23
:102CB0004466034C846630BC00F0A0BFFD3B0008B6
:102CC0000B3C00087047000030B5144B1C68656968
:102CD00045F0400565611B68DC6844F01004DC6069
:102CE0000F4B1C68256825F0010525601C682568C8
:102CF000ED07F7D11D680B4CAC601C68E0601868EC
:102D00000161186842601868016841F4802101601F
:102D10001868016841F00101016030BDBC0100206C
:102D200060020020044800407047FEF78FBB00009F
:102D300030B593B030216846FDF70DFB14210CA887
:102D4000FDF709FB1D480025016841F08051016035
:102D5000006800F0805011901948016841F48041EA
:102D600001600068022400F480401190012000906E
:102D7000000401908001CDE9064006200890A820BB
:102D8000CDE9090404200B906846FEF72BFD08B13D
:102D900072B6FEE70CA90F2081E831004FF4A05075
:102DA0000F904FF48050109005210CA8FEF7FEFB09
:102DB000002801D072B6FEE713B030BD40380240A3
:102DC000007000400248016841F4700101607047E2
:102DD00088ED00E0F0B402682C4B2D4C2D4D2E4EAA
:102DE000DFF8B8C098420AD0B0F1804F07D0A042B7
:102DF00005D0A84203D0B04201D0604503D122F0F3
:102E000070024F683A43984228D0B0F1804F25D0E5
:102E1000A04223D0A84221D0B0421FD060451DD08F
:102E2000A0F18044B4F5A03418D0A0F18044B4F5EA
:102E3000A23413D0A0F18044B4F5A4340ED0A0F194
:102E40008044B4F5C05409D0A0F18044B4F5E054F6
:102E500004D0A0F18044B4F5005403D122F44072B0
:102E6000CC6822434C6922F08002224302608A68C7
:102E7000C2620A688262984201D0604501D1096944
:102E8000016301214161F0BC704700000000014076
:102E90000004004000080040000C00400004014015
:102EA00001F01F0101238B40D0F820C02CEA03035E
:102EB0000362036A02FA01F1194301627047D0F814
:102EC00008C02CF47F4C42EA0322114341EA0C0172
:102ED00081607047826822F07002114341F007015F
:102EE0008160704770B4026A22F001020262036AD4
:102EF0004268D0F818C02CF0700C2CF0030C0C6851
:102F000044EA0C0C23F002038C6823430F4C104D51
:102F1000A04201D0A84205D123F00803CE68334374
:102F200023F00403A04201D0A84207D122F480720A
:102F300022F400724C6922438C6922434260C0F83B
:102F400018C049684163036270BC704700000140CB
:102F50000004014070B4026A22F010020262036AA7
:102F60004268D0F818C02CF4E04C2CF4407C0C687B
:102F70004CEA042C23F020038C6843EA0413114C20
:102F8000114DA04201D0A84206D123F08003CE68A3
:102F900043EA061323F04003A04201D0A84209D11E
:102FA00022F4806222F400624C6942EA84028C6955
:102FB00042EA84024260C0F818C049688163036233
:102FC00070BC7047000001400004014070B4026A08
:102FD00022F480720262036A4268D0F81CC02CF0AE
:102FE000700C2CF0030C0C6844EA0C0C23F40073F6
:102FF0008C6843EA0423114C114DA04201D0A84231
:1030000006D123F40063CE6843EA062323F48063E9
:10301000A04201D0A84209D122F4805222F40052E9
:103020004C6942EA04128C6942EA04124260C0F818
:103030001CC04968C163036270BC70470000014056
:103040000004014010B4026A22F480520262D0F8F7
:1030500020C04268C36923F4E04323F440730C6842
:1030600043EA04232CF4005C8C684CEA043CA0F195
:103070008044B4F5803404D0A0F18044B4F58234A7
:1030800004D122F480424C6942EA84124260C36156
:1030900049680164C0F820C010BC7047036AD0F8CA
:1030A00020C02CF0010CC0F820C0D0F818C02CF0C3
:1030B000F00C4CEA021223F00A0319438261016208
:1030C0007047036A23F010030362D0F818C0036A44
:1030D0002CF4704C4CEA023223F0A00343EA0111B5
:1030E00082610162704710B5806B0021C185C18487
:1030F000FFF7C7F810BD01680C3151E8002F22F42A
:10310000907241E80023002BF5D10168143151E899
:10311000002F22F0010241E80023002BF5D1016BC2
:10312000012909D101680C3151E8002F22F0100269
:1031300041E80023002BF5D1202180F83E1000212A
:103140000163704710B50168CA6822F04002CA6086
:10315000202180F83D10FFF7CAFB002010BD08B504
:1031600090F83E10222901D0022008BD8268B2F5F5
:10317000805F01D1016929B1816AB2F5805F1DD0FC
:1031800052B10BE0816A02685268C2F308020A80F9
:10319000816A891C816209E002697AB10268526819
:1031A00002F07F020A70816A491C8162C18D491E4A
:1031B0000904090CC18505D0002008BD02685268C9
:1031C0000A70F0E70168CA6822F02002CA6001684C
:1031D000CA6822F48072CA6001684A6922F001025A
:1031E0004A61202180F83E10016B012903D0FFF7CE
:1031F0007BFA002008BD0021016301680C3151E811
:10320000002F22F0100241E80023002BF5D10168C5
:103210000A6812F0100F02D00A6849680091818D87
:10322000FFF72EF8E5E700002DE9F041044620689D
:103230000169E26821F44051114301612169A068EC
:10324000E26908436169114301432068C26822F4BE
:10325000037222F414421143C16020684169A269DB
:1032600021F44071114341612068A0F18041B1F522
:1032700088312ED0A0F18041B1F58A3129D0FEF7F6
:1032800059FA8446E16900201927254D3226B1F507
:10329000004F22D06068830F8200ACFB0701FCF76F
:1032A000E3FF0146A5FB002040097A42424301EBBF
:1032B000820106EB0111A5FB0121490901F0F00291
:1032C00002EB001001F00F01084421688860BDE89E
:1032D000F081FEF73FFA8446D4E761684A1840EB74
:1032E0000003ACFB0701FCF7BFFF0346A5FB001082
:1032F000410918460A016FF01803594300EB810099
:1033000006EBC000A5FB0010400900F0F80102EB3D
:10331000410100F00700084421688860BDE8F081A1
:103320001F85EB5181628285C285002101642222C2
:1033300080F83E2080F83C100168CA6842F4807230
:10334000CA6001684A6942F001024A610068C168C6
:1033500041F02001C1600020704790F83D10212904
:1033600001D0022070478168B1F5805F01D1016909
:1033700061B1016A4A1C0262026809785160C18C1D
:10338000491E0904090CC1840AD013E0016A0268CD
:103390000988C1F308015160016A891C0162EEE7E6
:1033A0000168CA6822F08002CA600068C16841F002
:1033B0004001C160002070472DE9F0410446069DA0
:1033C000884616461F462068006838EA00002AD062
:1033D0000020B04231D1B5F1FF3F26D025B1FEF734
:1033E0002FF8C01BA84220D920680C3050E8001FDD
:1033F00021F4D07140E80012002AF5D12068143081
:1034000050E8001F21F0010140E80012002AF5D128
:10341000202084F83D0084F83E00002084F83C0021
:103420000320BDE8F0810120D3E72068006838EA76
:10343000000005D00020B042CDD00020BDE8F081D2
:103440000120F8E70148FEF71DBF000078010020C9
:10345000264818B400680168890604D501684068E8
:10346000009018BC704722490968C906F9D501685F
:103470004068204A0090106801684FF024030C0354
:103480001D49046824F00104046016D410684468DF
:10349000C4F12404A4B20C8043601068016841F4B4
:1034A000002101601068016841F001010160122CE7
:1034B000D7D1124901F1160015E014686068C0F117
:1034C000240080B2088063600D498B6A23F40023D6
:1034D0008B6211680A6842F001020A601228C0D1AA
:1034E000064901F13A0018BC00F09ABBBC0100206B
:1034F00000480040600200203E000020C002002082
:1035000000600240FEE7D0ED000AF4EEC00AF1EEE2
:1035100010FA01DD80ED000AD0ED000AB1EE400A9C
:10352000F4EEC00AF1EE10FA01D280ED000A704705
:1035300030B50346012000214FF47A720A245D5C05
:10354000491C303D05FB020092FBF4F20329F6DD35
:10355000401E30BD00B58BB000200121CDE9060131
:1035600008910090019002900390059004906946A4
:103570000548FDF79FF80448FDF725FC02210248A5
:10358000FDF704F80BB000BDC00000200749F6EEBF
:10359000000AC96801EB4000B0F9000000EE100A13
:1035A000B8EEC00A20EE200A70470000000000209C
:1035B0000749F1EE000AC96801EB4000B0F90000CC
:1035C00000EE100AB8EEC00A20EE200A7047000094
:1035D000000000200A4940F2DC500A6850630A6883
:1035E00090630A68D0630968086406494FF47A70EA
:1035F0000A6850630A6890630968C86370470000EE
:10360000E80000203001002000487047C002002080
:103610002DED028BF6B04FF47A75FDF71FFFFFF723
:1036200087FBFFF7AFF9FFF787F9FFF71FFBFFF7FE
:1036300001FBFFF75FF9FFF7FDF9FFF779FAEF48B4
:10364000FEF7F4FB0021ED48FEF7ACFD0421EB484A
:10365000FEF7A8FD0821E948FEF7A4FD0C21E74884
:10366000FEF7A0FDE648FEF7E1FB0021E448FEF787
:1036700099FD0421E248FEF795FD0821E048FEF798
:1036800091FDFFF7A7FF4FF49670FDF7A5FDDFF85A
:1036900070934FF4AF61D9F80000C1630B22D94990
:1036A000D948FFF709F8FFF755FFD848FDF78BFB1E
:1036B00000F0AEFA00F00EFBFFF7A6FFDFF844A320
:1036C0000024AAF1280ADFEDD28A9FEDD28A6F008A
:1036D0006E46CAF80C0000BF04EBC40000EB4000CB
:1036E00006EB8000B0EE681AF0EE480AB1EE040A6C
:1036F0003A463B460321FFF7D9FA641CA4B2042CD6
:10370000EAD300206D906E906F907090C2481421A3
:1037100000686C9071A8FCF71EFEDFF800B3012270
:1037200091025C465846FDF783FE00224FF400618B
:103730002046FDF77DFE9FEDBA8B00BFDAF80C2026
:10374000D17A022907D00329F8D10F22AD49AE481A
:10375000FEF7B2FFF2E7907A012804D0022821D0C8
:10376000032831D075E00020FFF722FFAE4A032086
:1037700082ED030A82ED020A82ED010A82ED000A5F
:10378000FFF704FFD2ED000A032030EE200A82ED9D
:10379000000AFFF7FBFED2ED020A30EE200A82EDAE
:1037A000020A56E00120FFF703FF9F4A032082ED43
:1037B000030A82ED000AFFF7FBFEB1EE400A82ED3C
:1037C000020A82ED010A44E00220FFF7F1FEB0EEAA
:1037D000401A0320FFF7ECFE31EE401A0020FFF7FD
:1037E000E7FE31EE000A904A032082ED000AFFF75F
:1037F000DFFEB0EE401A0220FFF7DAFE31EE001ACB
:103800000020FFF7D5FE31EE000A032082ED010A09
:10381000FFF7CEFEB0EE401A0220FFF7C9FE31EEF0
:10382000401A0020FFF7C4FE31EE000A032082EDAB
:10383000020AFFF7BDFEB1EE401A0220FFF7B8FE04
:1038400031EE401A0020FFF7B3FE31EE000A82EDA0
:10385000030A754F002407F1280800BF07EB840016
:1038600004EB8402D0ED000A08EB4200BDEEE00A52
:10387000B0F9020010EE101A091A09B2A94201DDCE
:10388000411903E06A42914204DA411B00EE101A2A
:10389000F8EEC00A00EE100A04EBC40000EB400092
:1038A000B8EEC00A06EB800000F0C6F8641CA4B2B3
:1038B000052CD3D39DED600ABDEEC00A10EE100AB0
:1038C0009DED450A03B2BDEEC00A10EE100A9DED53
:1038D0002A0A02B2BDEEC00A10EE100A9DED0F0AD0
:1038E00001B2BDEEC00A10EE100A00B2FCF79EFD58
:1038F0000220FDF771FCDAF80C00D0465446B0F90E
:10390000080000F078FB9FED491B53EC112B00F0F1
:1039100089FB00F041FB002302B219461846FCF770
:10392000A9FD0220FDF758FCE0683D21B0F9020036
:103930008DF8B11100EE100AB8EEC00ABDEEC00A53
:1039400010EE100A00280DDA3A49884200DA0846DB
:1039500000F051FB53EC182B00F0C6F900F01CFBF3
:103960002D210DE04FF41671884200DD084600F06D
:1039700042FB53EC182B00F0B7F900F00DFB2B21A4
:1039800000F5A0608DF8B111DC3000D540424FF455
:10399000E161884203DC4FF49661884200DA084610
:1039A0000746044600224FF480615846FDF740FD6B
:1039B0000122D1025846FDF73BFD0A206CAB0146BF
:1039C00009E000BF94FBF1F201FB124294FBF1F419
:1039D00030321A54401E002CF4D1D9F800304FF484
:1039E0009B605863D9F8002090638DF8C311D9F813
:1039F0000000C7630520FDF7EFFB9FE6E80000200D
:103A0000300100202800002078010020C0000020A4
:103A100000000000CDCCCC3D2C420008001C024030
:103A2000333333333333F33F5000002000000000C2
:103A30000000F83FA8FDFFFF00B530EEC01A80ED92
:103A4000080AC0ED050A80ED0B1AD0ED141A0146E4
:103A50009FED692A30EEC00AF5EEC01AB1EE400AB9
:103A6000F1EE10FA0ED0B5EEC01AF1EE10FA02DD4A
:103A7000F0EE410A01E0F0EE400AF4EEE10AF1EE68
:103A800010FA12DCD1ED150AF5EEC00AF1EE10FACB
:103A90000ED0B5EEC01AF1EE10FA01DDB0EE410A1B
:103AA000B4EEE00AF1EE10FA02D2B0EE420A00BD26
:103AB000886D01F13402032802D0042838D07AE05E
:103AC00091ED000A104620EE010A81ED0C0A91EDFD
:103AD0000D0AD1ED010A00EE810A81ED0D0A91ED8A
:103AE0000A0AD1ED020A31EE400A20EE200A81EDE9
:103AF0000E0A91ED180AB8EE400AFFF704FD91EDA9
:103B00000C0AD1ED0D0A01F13C0030EE200AD1ED96
:103B10000E0A30EE200A81ED0F0A91ED170AB8EE79
:103B2000400AFFF7F0FC91ED0F0A81ED100A42E028
:103B300091ED0A0AD1ED001A104671EE400A60EECE
:103B4000A10AC1ED0C0AD1ED010A60EE810AC1EDB6
:103B50000D0AF0EE000A00EE601A91ED090AD1EDAF
:103B6000020A31EE000A20EE200A81ED0E0A91EDE4
:103B7000180AB8EE400AFFF7C6FC91ED0C0AD1ED29
:103B80000D0A01F1480030EE200AD1ED0E0A30EEA8
:103B9000200A81ED110AD1ED130A30EE800A81ED81
:103BA000120A91ED170AB8EE400AFFF7ACFC91ED4E
:103BB000120A81ED130A91ED0A0A81ED090A91EDCD
:103BC0000B0A81ED0A0A91ED070A81ED060A91EDD3
:103BD000080A81ED070A91ED040A81ED030A91EDCF
:103BE000050A81ED040A886D032802D091ED120ABE
:103BF00000BD91ED0F0A00BD0000000000F1580C5F
:103C00008CE80E0080EC030A704780EC030A7047D2
:103C100002492422A1F12400FFF756B8FA0200203D
:103C2000F0B5002855D0002953D00278437842EAF5
:103C30000322C2F30A020A8043788478DB0843EA4D
:103C40004413C3F30A034B808478C578A40944EA7B
:103C50008504057944EA8524C4F30A048C80057937
:103C600046796D0845EAC615C5F30A05CD80467943
:103C7000C6F301168E724679B609CE728679C77977
:103C800046EA07268E81067A477A46EA0726CE81DB
:103C9000867AC77A46EA07260E82067B8E74467BB2
:103CA000CE74867BC77B46EA07268E82067C407CE4
:103CB000A2F580620A80A3F580634B80A4F580643E
:103CC00046EA00208C80A5F58065CD80A0F5806057
:103CD0000881F0BD03480068416941F080014161FD
:103CE00070470000780100202DE9C04130B4DFF8B2
:103CF000A0C23CEA111418BF3CEA131400F0EC8097
:103D000081EA03051CEA111444EAD57418BF1CEAC1
:103D1000131500F0C780A4EB05044FF0004545EAF9
:103D2000C12145EAC32341EA505143EA525304F109
:103D30007F74994204F500344FEAC0204FEAC22252
:103D400008BF904200F09C804FEA13650FF24016C6
:103D5000765D4FEA134506FB05F7C7F1807706FB52
:103D600007F74FEAD737A7FB03687642C8F58038D4
:103D7000A7FB06CE38BFA8F1010807FB08E64FF005
:103D8000000EA6FB028CE6FB03CEDCF1000CCEF1AC
:103D9000004E38BFAEF1010EA6FB0C584FF00007E5
:103DA0004FF00005E6FB0E87A1FB08C6A0FB07CE7F
:103DB00016EB0E0645F10005E1FB076515F1E04E37
:103DC0007EBFA4F580345FEA46066D4116F1800798
:103DD00045F100054FEA17274FEA066647EA0567EF
:103DE000A6F1DE46B6F1805F4FEA15251FD93846A9
:103DF00024F0010C05EBC471BCF1FE6F01EB0C115A
:103E000002D8F0BCBDE8008124425CBF01F5801EF1
:103E10009EEAC47F02D4F0BCBDE80081244238D4BD
:103E2000F0BCA1F1C041BDE8004100F0F3B94FEA98
:103E3000D22242EA43524FEAD323A7FB02864FEA3B
:103E4000D02040EA415007FB03661EEA0E0F4FEAFE
:103E5000D12105FB026658BFA6EB0056B6EB005613
:103E60004FEA520E4EEAC37E18EB0E0E56EB530E7F
:103E7000BDD518EB02085E417F1C55F10005B6E781
:103E80004FF480154FF000074FF000064FF0000888
:103E9000ADE7F0BC4FF0000001F1C04101F000417E
:103EA000BDE8008111EA0C1F0CEA131500D00CE0EC
:103EB00013EA0C1F00F025804FF00000F0BC81EAEF
:103EC000030101F00041BDE80081F0BCBDE8004104
:103ED00081EA030100F09EB9F0BCBDE8004170B575
:103EE00000F04AF9097EFC3E00F007B881EA0301C0
:103EF0004FF0000001F00041704781EA030100F03B
:103F000089B9F0BCBDE800414FF00000214970477D
:103F1000FFFDFBF9F7F5F4F2F0EEEDEBE9E8E6E48E
:103F2000E3E1E0DEDDDBDAD8D7D5D4D3D1D0CFCD15
:103F3000CCCBCAC8C7C6C5C4C2C1C0BFBEBDBCBB4E
:103F4000BAB9B8B7B6B5B4B3B2B1B0AFAEADACAB49
:103F5000AAA9A8A8A7A6A5A4A3A3A2A1A09F9F9E23
:103F60009D9C9C9B9A9999989797969595949393D5
:103F7000929191908F8F8E8E8D8C8C8B8B8A89896C
:103F800088888787868585848483838282818180EF
:103F90000000FF070000F87F4FEA41034FEA535348
:103FA000A3F58063D3F11E03C8BFD3F1210C0CDD50
:103FB0004FF0004242EAC12242EA505232FA03FC78
:103FC0008CEAE17CACEBE1707047102BC4BF0020A1
:103FD000704703F5787CBCF1FF3F04D06FF00042DE
:103FE00082EA2100704770B500F0C6F8499224803B
:103FF00000207047F2E710F0004248BF4042B0FA9C
:1040000080F310FA03F10AD0C3F11D0303F58063B6
:104010004FEA415002EB035202EBD12170474FF0BF
:1040200000007047DFF848C170B51CEA111E1EBFC2
:104030001CEA13159EEA0C0F95EA0C0F00F06F8036
:1040400081EA030423EA4C134EEAD47E21EA4C11A0
:1040500041F4801143F48013AE44A1FB024CA0FB59
:104060000365AEF17F7E361955EB0C05A1FB034CC1
:104070004CF10003A0FB021C16EB0C06654153F14A
:104080000003094218BF46F0010613F4007F0BD16C
:104090004FEA03314FEA0530340341EA155140EA53
:1040A00016506FF003020AE04FEAC3214FEAC52021
:1040B000F40241EA555140EA56506FF0020202EB19
:1040C0002E4201EB025585EACE710AD05FEA440C1C
:1040D00018BF24F0004450F1000041F1000120EA33
:1040E000D47040F2FE7C624500D270BDA84214BF7D
:1040F0004FF080444FF04044002E08BF0024BEF132
:10410000806FA8BFA1F1C041BDE8704080F28280FD
:104110004FF0000001F1C04101F0004170479EEAFC
:104120000C0F0CEA131518BF95EA0C0F06D04FF0D0
:10413000000081EA030E0EF0004170BD00F01CF893
:104140008900013E00F007B800F009B84FEA430CBF
:104150005FEA5C5C08D081EA030100F05BB84FEADB
:10416000410C5FEA5C5CF6D14FF0000001497047FA
:104170000000FF070000F87F0EF1020E2EF0030E84
:104180005EF8046B364205D4012A43EB030515F5AE
:10419000001F12D8012841EB010C1CF5001F0CD8A0
:1041A0000ED14FEAD17C15F5001F0CEB4C0C0CF135
:1041B000020C08BF4CEBD37C04E04FF0080C01E08C
:1041C0004FEAD37C0CEB4C0526FA05F606F0070601
:1041D000B6F1040C06D20EEB860CBDE870404CF034
:1041E000010C6047DFE80CF0090B02024FF00041C0
:1041F0004FF00000A1F5002170BD194610460128BE
:1042000051EB010418BFD4F5001484BF002001F065
:10421000004170BD0808A0F500114FEA3101704758
:104220004FF04070E1EE100A7047000040000000BF
:104230000006101600061016000000000000000026
:10424000010203040607080900000000010203043C
:10425000704200080000002050000000C401000867
:10426000C04200085000002030090000E0010008B2
:104270000A00000000000000000000000000000034
:1042800030303030303030300000000000000000AE
:10429000000000000000000023303030302C3030AF
:1042A00030300A4E4F2D706963747572650A0000D4
:1042B0000100000010000000000000000024F400D5
:040000050800018965
:00000001FF
