:020000040800F2
:1000000050490020E90200084F2900082524000873
:100010004D2900086D060008A92F00080000000007
:10002000000000000000000000000000290200089D
:10003000110700080000000085020008B12900082F
:100040000303000803030008030300080303000878
:100050000303000803030008030300080303000868
:100060000303000803030008030300080303000858
:100070007D060008030300080303000803030008CB
:100080000303000803030008030300080303000838
:1000900071060008030300080303000803030008B7
:1000A000812A000803030008030300080303000873
:1000B0000303000803030008030300080303000808
:1000C00003030008030300080303000803030008F8
:1000D00003030008912F0008030300089D2F000868
:1000E00003030008030300080303000803030008D8
:1000F00003030008030300080303000803030008C8
:1001000003030008030300080303000803030008B7
:1001100003030008030300080303000803030008A7
:100120000303000803030008030300080303000897
:100130000303000803030008030300080303000887
:100140000303000803030008030300080303000877
:1001500003030008030300088906000803030008DE
:100160000303000803030008030300080303000857
:100170000303000803030008030300080000000055
:10018000030300080303000800F002F800F03CF845
:100190000AA090E8000C82448344AAF10107DA45E2
:1001A00001D100F031F8AFF2090EBAE80F0013F0F8
:1001B000010F18BFFB1A43F0010318472C39000048
:1001C0004C390000103A24BF78C878C1FAD85207D9
:1001D00024BF30C830C144BF04680C6070470000C1
:1001E0000023002400250026103A28BF78C1FBD840
:1001F000520728BF30C148BF0B6070471FB503F0DE
:1002000033FC1FBD10B510BD00F061F91146FFF7BA
:10021000F5FF02F0DAFE00F07FF903B4FFF7F2FF1A
:1002200003BC00F087F900002C4B19680868B0E89F
:10023000F04F80F30988BFF36F8F4FF0000080F319
:10024000118870470000000008480068006880F3CB
:1002500008884FF0000080F3148862B661B6BFF3DF
:100260004F8FBFF36F8F00DF00BF00BF08ED00E0CE
:10027000DFF80C00016841F470010160704700BFB5
:1002800088ED00E0EFF30980BFF36F8F134B1A681E
:100290001EF0100F08BF20ED108A20E9F04F10600B
:1002A00009B44FF0500080F31188BFF34F8FBFF3B4
:1002B0006F8F03F0F1F94FF0000080F3118809BC53
:1002C00019680868B0E8F04F1EF0100F08BFB0ECD6
:1002D000108A80F30988BFF36F8F704718000020E1
:1002E000EFF3058070470000094880470948004740
:1002F000FEE7FEE7FEE7FEE7FEE7FEE7FEE7FEE7D6
:10030000FEE7FEE704480549054A064B7047000032
:10031000712A00088901000850430020504900203C
:10032000504500205045002053EA020C00F069803F
:100330002DE9F04B4FF00006002B1FBFB3FA83F5F9
:1003400003FA05F424FA05F65E4012BF1643B2FA2A
:1003500082F502FA05F4C5F120051EBF22FA05FC5C
:1003600044EA0C04203556EA044C4FEA144418BF02
:10037000641C4FF000084FF00009904271EB030C31
:1003800039D3002919BFB1FA81F701FA07F6B0FA9B
:1003900080F700FA07F6C7F120071EBF20FA07FC16
:1003A00046EA0C062037B6FBF4FCA7EB0507103F26
:1003B00007F01F0BCBF120060CFA0BFB2CFA06F60C
:1003C00044BFB3460026202FA4BF5E464FF0000B6B
:1003D0005BEA060C08BF4FF0010B19EB0B09ABFBF6
:1003E000027C48EB0608C01B06FB02CC0BFB03CCCF
:1003F00071EB0C01C1E70B46024641464846BDE899
:10040000F08B13B54FF000004FF00001AFF3008008
:10041000BDE81C40704710B5203AC0F00B80B1E831
:100420001850203AA0E81850B1E81850A0E8185029
:10043000BFF4F5AF5FEA027C24BFB1E81850A0E832
:10044000185044BF18C918C0BDE810405FEA827C4C
:1004500024BF51F8043B40F8043B08BF7047D20763
:1004600028BF31F8023B48BF11F8012B28BF20F804
:10047000023B48BF00F8012B70474FF0000200B567
:10048000134694469646203922BFA0E80C50A0E8B7
:100490000C50B1F12001BFF4F7AF090728BFA0E865
:1004A0000C5048BF0CC05DF804EB890028BF40F831
:1004B000042B08BF704748BF20F8022B11F0804F73
:1004C00018BF00F8012B704770477047704775469A
:1004D00000F02CF8AE4605006946534620F00700B0
:1004E000854618B020B5FFF70DFFBDE820404FF05E
:1004F00000064FF000074FF000084FF0000B21F00E
:100500000701AC46ACE8C009ACE8C009ACE8C009DA
:10051000ACE8C0098D46704710B50446AFF30080C3
:100520002046BDE81040FFF778BE00000048704745
:10053000EC42002001491820ABBEFEE72600020075
:1005400070470000464910B54A6822F440324A60BC
:100550004A6843681A434A6001684A6822F4807214
:100560004A6001684A68036942EA03224A600168F6
:100570004A6822F040724A6001684A6883681A43F8
:100580004A6001688A6822F400628A6001688A68A9
:10059000C3681A438A60816A6FF07062D142016851
:1005A0008A6822F070628A6001688A680CD0836A67
:1005B0001A438A6001688A6822F040528A600168A2
:1005C0008A68C36A1A4301E022F040528A600168D7
:1005D0008A6822F002028A6001688A68037E42EA21
:1005E00043028A6090F82010002901684A680FD001
:1005F00042F400624A6001684A6822F460424A603C
:1006000001684A68174C436A04EB43331A4301E01C
:1006100022F400624A600168CA6A22F47002CA6267
:100620000168CA6A838B104C04EB03531A43CA62F5
:1006300001688A6822F400728A6001688A6890F80A
:10064000303042EA43228A6001688A6822F480627C
:100650008A6001688A68406942EA8020886010BD2B
:100660000023014000E0FFFF0000F0FFFEE7000074
:10067000014800F054B900001C030020014800F0BC
:100680007DBB000054050020014800F077BB00004E
:10069000F404002001681823CAB2103AB2FBF3F246
:1006A000054B6FF30901032A9B5CC36500D9091D43
:1006B0008165084670470000AC3A000810B5014655
:1006C00000208B698A6A4FF0C07453B1B3F5005FA4
:1006D00015D072B1012A0CD0022A0AD0032A09D1FE
:1006E00004E01AB1012A06D0022A03D1C96AC9015D
:1006F00000D5012010BDC96AA142FAD010BD002A60
:10070000F7D0012AF2D0022AF3D0032AF3D010BD89
:10071000704772B6FEE7000078B50024009490F8A8
:100720003C20012A19D0012280F83C200A680723C6
:100730000568092A13D9EE680A3A02EB420293408F
:100740009E43EE600B788A680A3B03EB43039A40B2
:100750000368DD682A43DA6010E0022078BD2E6964
:1007600002EB420293409E432E610B788A6803EBB2
:1007700043039A4003681D692A431A614A681F238C
:10078000072A13D205686E6B521E02EB8202934059
:100790009E436E630B790A885B1E92B203EB830360
:1007A0009A4003685D6B2A435A6327E005680D2A67
:1007B00012D22E6BD21F02EB820293409E432E6315
:1007C0000B790A88DB1F92B203EB83039A4003681C
:1007D0001D6B2A431A6311E0EE6A0D3A02EB8202A6
:1007E00093409E43EE620B790A880D3B92B203EB75
:1007F00083039A400368DD6A2A43DA62164B056870
:10080000144A9D4206D10D68122D03D1556845F456
:100810008005556005689D4218D10B68102B01D0EA
:10082000112B13D1536843F4000353600968102956
:100830000CD10A490A4A0968B1FBF2F101EB8101C6
:10084000490000E0491E00910029FBD180F83C409E
:10085000002078BD0023014000200140140000204A
:1008600040420F0070B504004FF0000503D0206C2B
:10087000002610B107E0012070BD204600F01CF8F2
:10088000666484F83C60206CC00610D4206C20F4B0
:10089000885040F0020020642046FFF753FE666453
:1008A000206C20F0020040F00100206400E00125EF
:1008B00084F83C60284670BD10B586B0044614210B
:1008C0006846FFF7DAFD1249206888421DD11148B9
:1008D0000021026842F480620260006800F48060D7
:1008E00005900C481438026842F02002026000684B
:1008F00000F0200005904FF4806000900320CDE9C7
:1009000001016946044800F085FB06B010BD0000F7
:1009100000220140443802400014024070472DE993
:10092000F05F0546006800244669D0F804908768A7
:10093000D0F80CB0D0F810A0D0F81880F10748D04B
:10094000F90714D001218160B80703D5284600F0CB
:10095000B3F90CE0780702D54FF4006407E03807DC
:1009600002D54FF4805402E0284600F0A4F9F805BF
:1009700016D529684FF480708860B80503D52846DD
:1009800000F09CF90CE0780502D544F4005407E02F
:10099000380502D544F4804402E0284600F08DF981
:1009A000F80316D529684FF480308860B80303D562
:1009B000284600F085F90CE0780302D544F40044A1
:1009C00007E0380302D544F4803402E0284600F002
:1009D00076F9300707D55FEACB6004D52968102087
:1009E00044F40074C86070074FF0080707D55FEA49
:1009F0000B7004D52868C760284600F057F9B00787
:100A000006D52868C068800702D0284600F04FF954
:100A1000700607D55FEACA6004D52968102044F43F
:100A200080640861B00607D55FEA0A7004D52868BB
:100A30000761284600F03CF9F00606D528680069F1
:100A4000800702D0284600F034F9B00308D55FEAE9
:100A5000C96005D5296810204860284600F02AF9A9
:100A6000F00307D55FEA097004D528684760284677
:100A700000F027F9300446D55FEA497040D5F0050B
:100A800004D55FEAC87001D044F00104B00504D574
:100A90005FEA887001D544F00204700504D55FEA6E
:100AA000487001D544F00404300529D518F0700FC2
:100AB00026D008F07000402815D006DC102809D098
:100AC00020280AD0302816D10AE050280ED06028FD
:100AD00011D10EE044F008040DE044F010040AE0E7
:100AE00044F0200407E044F0400404E044F08004B3
:100AF00001E044F480742868816921F0700181610B
:100B0000296804204860002C05D0686A2043686288
:100B10002846FFF703FFBDE8F09F70B5040003D03F
:100B200094F8200010B104E0012070BD204600F0D0
:100B300081F82068016841F00101016000F068FB64
:100B40000546052604E000F063FB401B0A2811D887
:100B500020684068C007F6D02068016821F00201D3
:100B6000016000F055FB05460BE000F051FB401B17
:100B70000A2806D9606A40F40030606284F8206078
:100B8000D2E7206840688007EFD4207E01282068E3
:100B900001683DD021F080010160607E012820685D
:100BA000016838D021F040010160A07E0128206852
:100BB000016833D021F020010160E07E0128206827
:100BC00001682ED041F010010160207F01282068CB
:100BD000016829D021F008010160607F01282068A8
:100BE000016824D021F004010160D4E90201084326
:100BF000D4E90412114308436168491E084321687F
:100C0000C86100206062012084F82000002070BDCF
:100C100041F08001C0E741F04001C5E741F020010B
:100C2000CAE721F01001CFE741F00801D4E741F015
:100C30000401D9E710B586B0044614216846FFF7D1
:100C40001CFC17492068884227D1164800210268F9
:100C500042F000720260006800F0007005901148D8
:100C60001038026842F0080202600068022200F0B8
:100C7000080005900320CDE90210CDE9000209200B
:100C800004906946084800F0C5F9002205211420A7
:100C900000F056FB142000F045FB06B010BD00002C
:100CA0000064004040380240000C0240704770472A
:100CB000704770477047704770477047704770477C
:100CC000704770472DE9F0410446876D00F0A0FAA7
:100CD000064694F835000025022806D0802060657D
:100CE00084F834500120BDE8F0812068016821F0CB
:100CF000160101602068416921F080014161206C8A
:100D000008B9A06C20B12068016821F008010160D9
:100D10002068016821F0010101600CE000F078FA20
:100D2000801B052807D920206065032084F8350042
:100D300084F83450D7E720680068C007EED194F8F3
:100D40005C103F208840B860012084F8350084F8AA
:100D500034500020C7E790F83510022903D08021D5
:100D6000416501207047052180F835100068016851
:100D700021F0010101600020704700002DE9F843D7
:100D800004464FF00009CDF8009063484FF4165127
:100D9000A56D0068B0FBF1F72E6894F85C10082090
:100DA00000FA01F131420FD021680A6852070BD5D1
:100DB0000A6822F004020A6094F85C108840A86077
:100DC000606D40F00100606594F85C104FF0010820
:100DD00008FA01F0304208D021684969090604D5B3
:100DE000A860606D40F00200606594F85C1004201B
:100DF0008840304208D021680968890704D5A86076
:100E0000606D40F00400606594F85C10102088402C
:100E1000304218D021680968090714D5A8602068F5
:100E20000168490304D50068000308D5A16C07E0F8
:100E30000168C90503D4016821F008010160216C33
:100E400009B12046884794F85C1020208840304241
:100E500031D021680968C9062DD5A86094F83500FD
:100E600005282068016806D0490347D500680003BB
:100E70001DD4616C1CE021F01601016020684169FD
:100E800021F080014161206C08B9A06C20B120687C
:100E9000016821F00801016094F85C103F2088404F
:100EA000A86084F8358084F83490216D1FE0E16BF0
:100EB00009B120468847606D00282BD0606DC007BF
:100EC00014D0052084F835002068016821F0010164
:100ED00001600098401C0090B84203D82068006868
:100EE000C007F6D184F8358084F83490E16C00298D
:100EF00010D001B02046BDE8F04308470168C9059D
:100F0000D5D4016821F01001016084F8358084F89F
:100F10003490CCE7BDE8F883140000202DE9F041BF
:100F2000044600F075F906465CB1022084F83500ED
:100F3000002584F834502068016821F00101016027
:100F40000DE00120BDE8F08100F062F9801B05286A
:100F500005D920206065032084F83500F2E7206879
:100F60000068C007F0D12268116820480140D4E928
:100F700001031843D4E90336334318436369184324
:100F8000A3691843E3691843236A18430843616A55
:100F9000042903D1D4E90B131943084310602068D6
:100FA0004069666A20F0070130460E430127042895
:100FB0000CD1A06A0643E06A40B12046FFF77EFBF1
:100FC00020B14020606584F83570BAE7206846613A
:100FD0002046FFF75FFB94F85C203F219140816041
:100FE000656584F835700020ACE700003F8010F0A4
:100FF00070B5044600F00CF90546601C02D00448A8
:101000000078044400F004F9401BA042FAD370BDFC
:10101000080000202DE9F84FDFF8BCA100220125CF
:1010200003264FF00F090AF1040BAAF1040E00BFCA
:101030000B6805FA02F42340A34270D10F7907F040
:101040000307012F01D0022F16D187684FEA42080B
:1010500006FA08FC27EA0C07D1F80CC00CFA08FCC9
:101060004CEA070CC0F808C04768A7430C79C4F3E2
:10107000001494403C4344600C79E443A4070AD034
:10108000C4684FEA420C06FA0CF7BC438F6807FAB3
:101090000CF72743C7600C7904F00304022C12D12B
:1010A000D40800EB840CDCF820405707FF0E09FA47
:1010B00007F824EA0804D1F8108008FA07F848EA8B
:1010C0000408CCF8208004684FEA420C06FA0CF7BA
:1010D000BC430F7907F0030707FA0CF727430760B3
:1010E0004C6814F4403F70D03C4C276847F480476C
:1010F0002760246822F0030704F480440094384CED
:1011000007EB040CDCF8084897074FEA177809FA50
:1011100008F7BC43334FB84202D1002724E054E023
:10112000314FB84201D101271EE0304FB84201D102
:10113000022719E02E4FB84201D1032714E02D4FAA
:10114000B84201D104270FE02B4FB84201D1052747
:101150000AE02A4FB84201D1062705E0284FB842DD
:1011600001D1072700E0082707FA08F72743CCF842
:101170000878DAF800405746D1F804C09C435FEA8B
:10118000CC2C00D51C433C60DBF800405F46D1F816
:1011900004C09C435FEA8C2C00D51C433C60DEF805
:1011A00000407746D1F804C09C435FEA8C3C00D5F0
:1011B0001C433C60084F083F3C68D1F804C09C4386
:1011C0005FEACC3C00D51C433C60521C102AFFF463
:1011D0002FAFBDE8F88F0000083C014044380240C2
:1011E00000300140000002400004024000080240BC
:1011F000000C02400010024000140240001802409F
:10120000001C02400AB1816170470904FBE700003D
:10121000014880687047000008000020024881688B
:101220000278114481607047080000200B4810B517
:10123000016841F400710160016841F4806101605E
:10124000016841F480710160032000F099F80F20DB
:1012500000F006F800F04AF8002010BD003C024003
:1012600030B505461C4887B00024016841F4803140
:101270000160006806A900F48030009001A800F029
:101280002BF900F059F915494000B0FBF1F1154870
:10129000134A491E026040F2E732C0E90324C0E964
:1012A0000114846100F0B4FB040012D10D4800F079
:1012B00017FC04000DD1182000F034F8102D07D2CF
:1012C00000222946182000F03BF80748056000E09E
:1012D000012407B0204630BD4438024040420F0090
:1012E00000400140B40500200C0000200C4882B0F2
:1012F000016841F480410160006800F48040009082
:101300000748001F016841F0805101600068002219
:1013100000F0805000900F21901E02B000F010B835
:1013200044380240002809DB00F01F0201219140EF
:101330004009800000F1E020C0F800117047000073
:10134000F0B40E4B1B680C46C3F30223C3F1070530
:10135000042D00D90425191D072901D2002300E01E
:10136000DB1E012606FA05F1491E214099409E40E8
:10137000761E16403143F0BC01F017BE0CED00E0C4
:10138000064900F0070208684FF6FF03184040EADC
:101390000220034A10430860704700000CED00E093
:1013A0000000FA052DE9F0470E46050065D0DFF88C
:1013B0001481D8F80000F7B200F00700B04207D25D
:1013C00088F80070D8F8000000F00700B04254D14F
:1013D00028683D4C810712D5400703D5206840F4AA
:1013E000E05020602878000703D5206840F4604072
:1013F00020602068A96820F0F00008432060287869
:10140000C0072DD0304968680839012812D0022859
:1014100013D0032811D00968890700292DDA216823
:1014200021F0030101432160FFF7F2FE814641F202
:10143000883A0EE009688903EFE709688901ECE75B
:10144000FFF7E6FEA0EB0901514502D90320BDE8F4
:10145000F0872068696800F00C00B0EB810FEFD1D5
:10146000D8F80010404601F00701B14207D90770D3
:10147000006800F00700B04201D00120E7E72878BB
:10148000400705D52068E96820F4E0500843206053
:101490002878000706D52068296920F4604040EAD2
:1014A000C100206000F058F82168084AC1F3031118
:1014B000515CC8400649086006480068FFF7D0FE46
:1014C0000020C4E7003C024008380240B43A00085B
:1014D000140000200C0000200F2202600C4A136848
:1014E00003F003034360136803F0F00383601368A1
:1014F00003F4E053C36012684FF4E05303EAD202EE
:1015000002610448006800F00700086070470000AE
:1015100008380240003C0240044805490068096858
:10152000044AC1F38221515CC84070471400002076
:1015300008380240C43A00080448054900680968B0
:10154000044AC1F34231515CC84070471400002086
:1015500008380240C43A0008154810B5006810F079
:101560000C02144813D01449042A0FD0082A0ED1B3
:101570000F4C241F2268236802F03F025B0207D54C
:101580002068C0F38810A0FB010106E0084610BDEA
:101590002168C1F38811A1FB00010023FEF7C4FEFE
:1015A0002168C1F30141491C4900B0FBF1F010BDB5
:1015B000083802400024F400001BB7002DE9F84F62
:1015C00004006ED02078DFF84C93C007A9F1040521
:1015D0004AD009F104000168C1F38101012908D052
:1015E0000068C0F3810002280AD1D9F80000400247
:1015F00006D52868800337D560680028E1D033E03D
:101600006068B0F5803F10D0B0F5A02F286810D0EA
:1016100020F480302860286820F4802028606068EA
:10162000A8B1FFF7F5FD06460DE0286840F48030CC
:10163000F4E740F480202860F7E700BFFFF7E8FDFB
:10164000801B642873D828688003F7D50CE0FFF767
:10165000DFFD064605E000BFFFF7DAFD801B6428CA
:10166000F0D828688003F7D42078DFF8AC828007B0
:101670004FF0000A3ED5A748001D016811F00C0F7D
:1016800008D00068C0F3810002280BD1D9F800000F
:10169000400207D42868800716D5E068012800D1E9
:1016A00012E033E1E068B8B10120C8F80000FFF7AC
:1016B000AFFD064605E000BFFFF7AAFD801B02282C
:1016C000C0D828688007F7D52868216920F0F8007D
:1016D00040EAC10028600DE0C8F800A0FFF798FDBF
:1016E000064604E0FFF794FD801B02281FD82868F7
:1016F0008007F7D42078000722D5864F8748616994
:10170000703771B101210160FFF782FD064604E0E8
:10171000FFF77EFD801B022809D838688007F7D5BF
:101720000EE0C0F800A0FFF773FD064605E082E07A
:10173000FFF76EFD801B02287DD838688007F7D43C
:101740002078400768D5DFF8CCB100270BF13C0BBF
:10175000DBF80000C0000BD4DBF8001041F0805132
:10176000CBF80010DBF80000012700F0805000905B
:101770006B4E3068C00510D4306840F48070306023
:10178000FFF746FD009005E0FFF742FD0099401A83
:10179000022850D83068C005F6D55E4EA0686C3679
:1017A00001280FD00528306810D020F001003060EB
:1017B000306820F004003060A068B8B1FFF728FD61
:1017C00000900FE0306840F00100F4E740F00400C2
:1017D0003060F7E7FFF71CFD0099411A41F28830AD
:1017E000814266D830688007F4D50EE0FFF710FD1F
:1017F000009007E0FFF70CFD0099411A41F2883094
:10180000814256D830688007F4D42FB1DBF800103D
:1018100021F08051CBF80010A069C8B33D49091DE3
:101820000968C1F3810102294AD00228504607D035
:10183000C8F8600000E03CE0FFF7EAFC04463BE04B
:101840004746C8F86000FFF7E3FC064605E000BF26
:10185000FFF7DEFC801B02282BD828688001F7D414
:10186000D4E907010843A16A2E4A490802EB014165
:10187000626A41EA8211084394F82C1040EA01613F
:10188000C9F8001001203866FFF7C2FC044606E0E4
:101890003EE000BFFFF7BCFC001B022809D8286807
:1018A0008001F7D534E000BFFFF7B2FC001B02282F
:1018B00002D90320BDE8F88F28688001F4D427E01E
:1018C0000128F7D0D9F80000E26900F480019142C4
:1018D0001CD1226A00F03F01914217D147F6C07136
:1018E000626A0140B1EB821F10D1A26A4FF0FF3350
:1018F00000F4403103EB5202B1EB024F06D194F8F1
:101900002C1000F07060B0EB016F01D00120D1E726
:101910000020CFE70438024000004742800E4742D3
:10192000007000400000FFFF7047704710B590F84E
:101930003C20012A22D0012280F83C20CA688C6811
:1019400022F4407222434C6822F4806222430C68E5
:1019500022F4006222430C6922F4805222434C6933
:1019600022F400522243C969002322F480420A4330
:1019700001684A6480F83C30002010BD022010BD90
:1019800070B590F83C20012A32D0012480F83C4008
:10199000022280F83D2003685A689D6822F0700694
:1019A0000A6832435A60134B02689A4214D0B2F16B
:1019B000804F11D0104B9A420ED0104B9A420BD050
:1019C0000F4B9A4208D00F4B9A4205D00E4B9A42C9
:1019D00002D00E4B9A4204D1496825F08003194386
:1019E000916080F83D40002180F83C10084670BDB1
:1019F000022070BD000001400004004000080040CB
:101A0000000C00400004014000400140001800406C
:101A100010B5040003D094F83D0010B107E0012098
:101A200010BD002084F83C00204600F01FF8022082
:101A300084F83D00211D206801F030F8012084F871
:101A4000460084F83E0084F83F0084F8400084F8A3
:101A5000410084F8420084F8430084F8440084F88C
:101A6000450084F83D00002010BD000008B5184A6C
:101A700001681848914211D1016841F001010160EB
:101A80000068002200F0010000900F211820FFF7ED
:101A900057FCBDE808401820FFF744BC0E4A9142AD
:101AA00009D10C48001F016841F004010160006881
:101AB00000F0040009E0094A914207D1016841F0B1
:101AC00002010160006800F00200009008BD000003
:101AD000000001404438024000080040000401407A
:101AE00090F83D10012901D001207047022180F8B3
:101AF0003D100168CA6842F00102CA6000681149DD
:101B0000884214D0B0F1804F11D00F4988420ED0D6
:101B10000E4988420BD00E49884208D00D498842B0
:101B200005D00D49884202D00C49884204D1816811
:101B300001F00701062903D0016841F001010160AD
:101B400000207047000001400004004000080040F1
:101B5000000C00400004014000400140001800401B
:101B600070B5044690F83C000025012817D00126E6
:101B700084F83C60022084F83D002068826822F0EE
:101B8000770222F47F4282600868502838D00DDC4A
:101B900020284FD005DC90B3102811D14AE0022054
:101BA00070BD302846D040280AD13BE060282FD0B5
:101BB00070280DD0B0F5805F03D0B0F5005F12D073
:101BC000012584F83D60002084F83C00284670BD63
:101BD000CB68D1E90121206800F0CCFF2068816842
:101BE00041F0770109E0CB68D1E90121206800F0DC
:101BF000C1FF2068816841F480418160E1E719E01C
:101C0000CA684968206801F089F85021206806E018
:101C1000CA684968206801F092F86021206800F0E5
:101C2000B3FFCEE7CA684968206801F077F8402121
:101C30002068F4E7226801461046F0E770472DE976
:101C4000F04104460068C66805694FF00007A9071F
:101C500013D5B10711D5F91E016101202077206845
:101C600080698007204602D0FFF7E8FF04E000F01B
:101C7000EBF8204600F07DF92777680716D5700746
:101C800014D521686FF004000861022020772068D5
:101C9000806910F4407F204602D0FFF7CFFF04E0B8
:101CA00000F0D2F8204600F064F92777280715D510
:101CB000300713D521686FF00800086104202077F1
:101CC0002068C0698007204602D0FFF7B7FF04E014
:101CD00000F0BAF8204600F04CF92777E80616D550
:101CE000F00614D521686FF01000086108202077F5
:101CF0002068C06910F4407F204602D0FFF79EFFA5
:101D000004E000F0A1F8204600F033F92777E80757
:101D100008D0F00706D021686FF001000861204666
:101D200000F028F9280608D5300606D521686FF09E
:101D3000800008612046FFF7F7FD680608D57006A9
:101D400006D521686FF040000861204600F01CF9BC
:101D5000A8060AD5B00608D521686FF020000861F2
:101D60002046BDE8F041FFF7E0BDBDE8F08100008E
:101D700070B586B0044614216846FEF77EFB2A4AF9
:101D80002168002529480224914211D1016841F0BF
:101D9000100101600068694600F0100005904FF4E2
:101DA000D4408DE831000120CDE90350204811E0F6
:101DB000204A914212D1016841F008010160006897
:101DC000694600F00800059010148DE83100CDE957
:101DD00003541948FFF71EF906B070BD174A914227
:101DE000FAD1016841F480710160016801F48071E9
:101DF0000591016841F0040101600068032600F0CC
:101E000004000590C0208DE83100CDE903566946F5
:101E10000B48FFF7FFF840208DE83100CDE903566D
:101E200069460848D6E7000000000140303802400B
:101E30000010024000080040000C02400004014075
:101E40000020024000080240704770B5044690F838
:101E50003C0000260D4601280FD0012084F83C00EC
:101E60006AB1042A1DD0082A2FD00C2A3FD001269F
:101E7000002084F83C00304670BD022070BD206810
:101E800000F08AFE2068816941F0080181612068C4
:101E9000816921F004018161206881692A69114307
:101EA00011E0206800F0A8FE2068816941F400611B
:101EB00081612068816921F4806181612068816984
:101EC0002A6941EA02218161D2E7206800F0CAFE56
:101ED0002068C16941F00801C1612068C16921F031
:101EE0000401C1612068C1692A69114311E02068B9
:101EF00000F0ECFE2068C16941F40061C161206816
:101F0000C16921F48061C1612068C1692A6941EA1F
:101F10000221C161ACE710B5040003D094F83D0084
:101F200010B107E0012010BD002084F83C002046DD
:101F300000F01EF8022084F83D00211D206800F00A
:101F4000ADFD012084F8460084F83E0084F83F008F
:101F500084F8400084F8410084F8420084F843008B
:101F600084F8440084F8450084F83D00002010BD4A
:101F70007047704700680349884201D1FFF74EB9A6
:101F800070470000004001407047704770470000F4
:101F9000F8B5016804460868CA684B6910F00F0F6D
:101FA0004FF0000559D003F0010602F49077374353
:101FB00065D0C10705D0D10503D5616C41F00101A1
:101FC0006164410705D5D90703D0616C41F0020176
:101FD0006164810705D5D90703D0616C41F0040124
:101FE0006164010707D502F02001314303D0616C21
:101FF00041F008016164616C00293AD0800604D583
:10200000900602D5204600F0DBFE20684069616C36
:10201000C0F38010090700D460B3204600F0A9FE89
:1020200020684069400621D52068143050E8001F20
:1020300021F0400140E80012002AF5D1E06BA8B180
:102040006E490165E06BFEF786FE002811D0E06B5B
:10205000016D01B0BDE8F040084783060FD5930637
:102060000DD52046BDE8F84000F0AABE2046FFF797
:102070008DFFF8BD2046FFF789FF6564F8BD266B2C
:102080002023012E7DD1C6067BD5D60679D50868DA
:102090004868009048694FF00206400641D5E16B60
:1020A000086840680004000CE8D0A28D8242E5D99F
:1020B000E085C869B0F5807F2DD020680C3050E8ED
:1020C000001F21F4807140E80012002AF5D1206839
:1020D000143050E8001F21F0010140E80012002AEE
:1020E000F5D12068143050E8001F21F0400140E88D
:1020F0000012002AF5D184F84230256320680C30A4
:1021000050E8001F21F0100140E80012002AF5D12C
:10211000E06BFEF7D7FD6663A08DE18D401A81B2BA
:102120002AE0A08DE18D401A81B2E08D0028A5D073
:102130000029A3D022680C3252E8000F20F49070DE
:1021400042E80007002FF5D12068143050E8002F36
:1021500022F0010240E80027002FF5D184F8423038
:10216000256320680C3050E8002F22F0100240E870
:102170000023002BF5D166632046FFF706FFF8BD6C
:10218000FFE705062BD5150629D594F8410021282F
:10219000F5D1A068B0F5805F01D12069B0B1206AA7
:1021A000411C2162216800784860E08C401E0004D8
:1021B000000CE084E3D12068C16821F08001C16097
:1021C0002068C16841F04001C160D8E7206A0088FA
:1021D000C0F308004860206A801C2062E5E74006E2
:1021E000CDD55006CBD5CA68204622F04002CA6041
:1021F00084F8413000F015F9C1E70000632D0008B4
:1022000070B5040004D094F84100002510B106E038
:10221000012070BD84F84050204600F023F82420AF
:1022200084F841002068C16821F40051C160204653
:1022300000F028FE2068016921F4904101612068C6
:10224000416921F02A0141612068C16841F40051CF
:10225000C1606564202084F8410084F84200656311
:10226000002070BD2DE9F04F87B006461421684666
:10227000FEF703F96048DFF87CC1336800245E494B
:1022800014380225032207274FF000694FF4806AB3
:102290004FF4807B63454AD10B6843F010030B6019
:1022A000096801F010010591016841F00201016027
:1022B000016801F002010591016841F0010101602E
:1022C0000068CDE9024200F0010005908020CDE9D0
:1022D00000059046694604974848FEF79BFE280291
:1022E000CDE90005CDE90248694604974448FEF768
:1022F00091FE454D4348E5E802094020A5E8110458
:102300004FF4403045F81449C5E9064BC5E90804C7
:102310003D48FEF703FE08B1FEF7FBF9B563002266
:1023200005212520AE63FFF70BF825203DE0DFF8FF
:10233000DCC063453ED13049091F0B6843F480235C
:102340000B60096801F480210591016841F00401E6
:1023500001600068CDE9024200F0040005904FF4EE
:102360004060CDE90005694604972948FEF752FE12
:10237000254D284860352860C5E90194C5E9034A20
:102380006C61C5E9064B4FF44030C5E908042846A6
:10239000FEF7C4FD08B1FEF7BCF9F5630022052184
:1023A0002720AE63FEF7CCFF2720FEF7BBFF07B068
:1023B000BDE8F08F184EB342F9D10B6843F020030B
:1023C0000B60096801F020010591016841F04001AE
:1023D00001600068029400F0400005904FF48440D2
:1023E000CDE900050820CDE9032069460B48FEF73A
:1023F00011FEDCE7001001404438024000040240B6
:1024000000000240B8640240F4040020004800408C
:1024100000080240286002400014014000180240F9
:1024200070477047FEE700007FB500241548009410
:10243000019402941249039401604FF48031C0E981
:1024400001140461047680F820400F49C0E90A14A1
:102450000125C561C46080F830404561FEF702FA8D
:1024600008B1FEF756F90820CDE900056946029447
:102470000448FEF751F9002801D0FEF74AF97FBD64
:1024800000220140D40200200100000F0D4810B5C9
:102490000B4901601021416000218160C160016130
:1024A0004161017641768176C17601774177FEF709
:1024B00034FB002803D0BDE81040FEF72AB910BD58
:1024C000006400401C030020114808B5016841F475
:1024D00000110160016801F400110091016841F4EC
:1024E000800101600068002200F480000090052156
:1024F0000C20FEF725FF0C20FEF714FF002205211B
:102500004620FEF71DFFBDE808404620FEF70ABF43
:102510003038024010B58EB01C220B496846FDF7DA
:102520007AFF0021684600F078FD084C06491C221D
:1025300020601C3107A8FDF76EFF002107A800F0FE
:102540006CFD60600EB010BD743A00080000002001
:1025500070B586B014216846FDF78FFF2E48002421
:10256000016841F040010160016801F040010591FE
:10257000016841F001010160016801F0010105916C
:10258000016841F002010160016801F0020105915A
:10259000016841F008010160016801F0080105913E
:1025A000016841F004010160016801F00401059136
:1025B000016841F480710160016801F48071059146
:1025C000016841F080010160016801F0800105911E
:1025D000016841F020010160016801F020010591CE
:1025E000016841F01001016000680C4E00F010001D
:1025F0004FF4E0550590002229463046FEF702FED2
:1026000001200095CDE90104694630460394FEF7A8
:1026100001FD06B070BD000030380240001C0240D1
:1026200010B596B000240F94109411941294139442
:102630001C2168461494FDF720FF202107A8FDF710
:102640001CFF354833490160A721C0E9011444F655
:102650001F61C0E9031444618461FFF7D9F908B12F
:10266000FEF757F84FF480500F900FA92A48FFF754
:1026700077FA08B1FEF74DF82748FFF74CFC08B190
:10268000FEF747F8139413A923481494FFF778F939
:1026900008B1FEF73EF8602000904FF4FA60CDE9F3
:1026A0000104039404940594002269461A48069490
:1026B000FFF7CBFB08B1FEF72CF804226946164859
:1026C000FFF7C3FB08B1FEF724F808226946124859
:1026D000FFF7BBFB08B1FEF71CF80C2269460E4859
:1026E000FFF7B3FB08B1FEF714F8079408940994B8
:1026F0004FF400500A94CDE90B4007A906480E9408
:10270000FFF714F908B1FEF704F80348FFF730FBB0
:1027100016B010BD000001404403002010B58EB07B
:1027200000240794089409940A940B941C21684689
:102730000C94FDF7A2FE1E481C490160A721C0E9C8
:10274000011444F61F61C0E903148461FFF760F9C6
:1027500008B1FDF7DEFF4FF48050079007A9144839
:10276000FFF7FEF908B1FDF7D4FF1148FFF7D3FBDF
:1027700008B1FDF7CEFF0B940BA90D480C94FFF7A1
:10278000FFF808B1FDF7C5FF6020CDE90004029411
:102790000822694606480494FFF757FB08B1FDF785
:1027A000B8FF0348FFF7E4FA0EB010BD0008004080
:1027B0008C03002010B596B000240F94109411944F
:1027C000129413941C2168461494FDF756FE2021A0
:1027D00007A8FDF752FE31482F490160A721C0E943
:1027E000011444F61F61C0E9031444618461FFF7DA
:1027F0000FF908B1FDF78DFF4FF480500F900FA92E
:102800002648FFF7ADF908B1FDF783FF2348FFF72E
:1028100082FB08B1FDF77DFF139413A91F481494A0
:10282000FFF7AEF808B1FDF774FF602000904FF499
:10283000FA60CDE9010403940494059400226946EA
:1028400016480694FFF701FB08B1FDF762FF04226A
:1028500069461248FFF7F9FA08B1FDF75AFF082256
:1028600069460E48FFF7F1FA08B1FDF752FF0794E9
:10287000089409944FF400500A94CDE90B4007A93D
:1028800006480E94FFF752F808B1FDF742FF0348DF
:10289000FFF76EFA16B010BD00040140D40300200B
:1028A0000C4810B50A4901604FF4E1314160002144
:1028B00081600C22C160C0E904128161C161FFF72F
:1028C0009FFC002803D0BDE81040FDF722BF10BDDB
:1028D000001001401C0400200C4810B50A4901609A
:1028E0000B494160002181600422C160C0E90412EB
:1028F0008161C161FFF784FC002803D0BDE810406E
:10290000FDF707BF10BD0000004800406404002030
:10291000A08601000C4810B50A4901604FF4E1316E
:102920004160002181600C22C160C0E90412816114
:10293000C161FFF765FC002803D0BDE81040FDF73A
:10294000E8BE10BD00140140AC040020FEE7FEE725
:102950000A4C4FF480664FF47A75012231462046C6
:10296000FEF750FC2846FEF743FB00223146204686
:10297000FEF748FC2846FEF73BFBEEE7001C024052
:102980000A4C4FF400664FF47A7501223146204616
:10299000FEF738FC2846FEF72BFB00223146204686
:1029A000FEF730FC2846FEF723FBEEE7001C024052
:1029B00010B5502080F31188BFF34F8FBFF36F8F96
:1029C00000F082FF18B104494FF0805008600020E9
:1029D00080F3118810BD000004ED00E030B593B025
:1029E00030216846FDF749FD14210CA8FDF745FD8F
:1029F0001D480025016841F080510160006800F029
:102A0000805011901948016841F4804101600068CC
:102A1000022400F4804011900120009000040190F5
:102A20008001CDE9064006200890A820CDE90904E0
:102A300004200B906846FEF7C1FD08B172B6FEE7B0
:102A40000CA90F2081E831004FF4A0500F904FF4F3
:102A50008050109005210CA8FEF7A4FC002801D09E
:102A600072B6FEE713B030BD40380240007000403F
:102A70000248016841F470010160704788ED00E090
:102A800010B50448FFF7DBF8BDE810400248FFF737
:102A9000D6B8000044030020B4050020F0B5026859
:102AA000294C2A4D2A4E2B4F2B4B4FF0804CA042E5
:102AB00009D0604507D0A84205D0B04203D0B84243
:102AC00001D0984204D122F0700E4A6842EA0E0208
:102AD000A0421BD0604519D0A84217D0B04215D0F3
:102AE000B84213D0984211D01C4DA8420ED01C4DB4
:102AF000A8420BD01B4DA84208D01B4DA84205D0C0
:102B00001A4DA84202D01A4DA84203D122F44075B2
:102B1000CA682A434D6922F080022A4302608A680B
:102B2000C2620A688262A04201D0984201D109695A
:102B30000163012141610169C90703D0016921F0E5
:102B400001010161F0BD00000000014000040040EF
:102B500000080040000C004000040140004001401B
:102B6000004401400048014000180040001C0040A3
:102B70000020004010B5846842EA032224F47F4418
:102B80000A432243826010BD826822F070020A4329
:102B900042F0070181607047F0B5036A026A22F0D3
:102BA0000102026242688469124E24F073050C68C7
:102BB0002C4323F002058B682B430D4DA84201D016
:102BC000B04205D123F00807CB683B4323F0040350
:102BD000A84201D0B04205D14D6922F4407215439C
:102BE0008A692A4342608461496841630362F0BD97
:102BF0000000014000040140F0B5026A036A23F0BE
:102C000010030362436884690D6824F4E64444EACF
:102C100005248D6822F0200242EA05120F4D104E65
:102C2000A84201D0B04206D1CF6822F0800242EA29
:102C3000071222F04002A84201D0B04207D14D69EC
:102C400023F4406343EA85038D6943EA85034360C7
:102C50008461496881630262F0BD000000000140A8
:102C600000040140F0B5026A036A23F48073036232
:102C70004368C46922F4007224F073050C68124E94
:102C80002C438D6842EA05220E4DA84201D0B04285
:102C900006D1CF6822F4006242EA072222F4806261
:102CA000A84201D0B04207D14D6923F4405343EA12
:102CB00005138D6943EA05134360C4614968C16324
:102CC0000262F0BD000001400004014030B5046A1A
:102CD000026A22F4805202624268C3690D6823F4DA
:102CE000E64343EA05238D6824F4005444EA05349E
:102CF000084DA84202D0084DA84204D14D6922F4E3
:102D0000804242EA85124260C361496801640462FC
:102D100030BD0000000001400004014010B5036A0E
:102D2000046A24F001040462846924F0F00444EA93
:102D3000021423F00A020A438461026210BD10B536
:102D4000036A046A24F010040462846923F0A00377
:102D500024F4704444EA023243EA011182610162C0
:102D600010BD10B5806B0021C185C184FFF70EF93D
:102D700010BD01680C3151E8002F22F4907241E837
:102D80000023002BF5D10168143151E8002F22F007
:102D9000010241E80023002BF5D1016B012909D183
:102DA00001680C3151E8002F22F0100241E80023A5
:102DB000002BF5D1202180F84210002101637047DB
:102DC00008B590F84210222901D0022008BD82687F
:102DD0004FF480539A4201D1016921B1816A9A422C
:102DE0001BD04AB10AE00268816A5268C2F3080245
:102DF0000A80816A891C08E0026972B1026852681F
:102E000002F07F020A70816A491C8162C18D491EED
:102E10000904090CC18503D01BE002685268F1E780
:102E20000168CA6822F02002CA600168CA6822F4F8
:102E30008072CA6001684A6922F001024A61202159
:102E400080F8421000214163026B012A03D0FFF792
:102E5000E7FA002008BD016301680C3151E8002F3A
:102E600022F0100241E80023002BF5D101680A6826
:102E7000D20602D50A6849680091818DFFF785F86E
:102E8000E7E7000070B5044600680169E26821F4D4
:102E90004051114301612169A068E26908436169F9
:102EA000114308432168CA6849F20C639A430243FC
:102EB000CA6020684169A26921F4407111434161EF
:102EC00031492068884202D03049884202D1FEF759
:102ED00033FB01E0FEF720FBE269002319216425A2
:102EE0003226B2F5004F626828D0A0FB0101930F93
:102EF0009200FDF719FA0146B0FBF5F06FF01802E9
:102F0000504301EB800006EB0010B0FBF5F000F041
:102F1000F002B1FBF5F002EB0012B1FBF5F06FF03F
:102F20001803584301EB800006EB0010B0FBF5F0EE
:102F300000F00F0021681044886070BDA0FB010103
:102F400092185B41FDF7F0F90146B0FBF5F0020184
:102F5000B1FBF5F06FF01803584301EB800006EB6E
:102F6000C000B0FBF5F000F0F80002EB4002B1FB4E
:102F7000F5F0584301EB800006EBC000B0FBF5F024
:102F800000F00700D6E700000010014000140140E7
:102F90000148FEF7FDBF00001C0400200148FEF7B9
:102FA000F7BF000064040020FEE70907090E0028AF
:102FB00004DB00F1E02080F80014704700F00F00FF
:102FC00000F1E02080F8141D7047FEF72FF9FFF79D
:102FD00005FDFFF7BDFAFFF777FAFFF757FAFFF79E
:102FE0001FFBFFF75DFCFFF7E5FBFFF775FCFFF745
:102FF00091FCFFF719FAFFF791FBFFF78BFA00F04E
:1030000007F8FEE70021842800D0C11C084670475D
:1030100010B500F0F5FA002010BD30B585B00446BB
:103020000D466169B4F90800002910D0A16971B199
:10303000FFF7E8FF6269A1690192029100902B46B7
:1030400022692168606800F00FFC049010E0FFF72F
:10305000D9FF04A901910090208A2B4682B22168F1
:10306000606800F0CBFB012802D005B0002030BD25
:10307000049805B030BD000070B5044600F046FA73
:103080001C4DA868401CA860286810B1686938B158
:103090000CE02C60A868012808D100F0EDF805E0EC
:1030A0002868E16AC06A884200D82C60686A401CBF
:1030B0006862E06A01212A698140114329610E4951
:1030C00000EB800001EB8000211D00F013FA00F0FE
:1030D0003DFA686900280CD02868E16AC06A884215
:1030E00007D206494FF080500860BFF34F8FBFF3FF
:1030F0006F8F70BD18000020FC05002004ED00E07B
:1031000070B50D4C6068002815D00C4E00F0FEF92B
:10311000F068C568281D00F0C1F9A068401EA060D5
:103120006068401E606000F011FA284600F008F860
:1031300060680028EAD170BD18000020C406002095
:1031400010B5044694F8511000290BD0012911D074
:10315000022914D0502080F31188BFF34F8FBFF3A2
:103160006F8FFEE7206B00F007FA2046BDE81040A5
:1031700000F002BA2046BDE8104000F0FDB910BDD5
:103180004FF47051104810F0070F06D0C01D20F00A
:1031900007000D49411AC1F570510C4A1060002317
:1031A00053600144083921F00701183A11604B605F
:1031B0000B600B1A436001604068906050604FF0F4
:1031C0000040506170470000EC0600206C000020B9
:1031D000074E4FF08054074DFFF792FF30680128EB
:1031E000FAD92C60BFF34F8FBFF36F8FF4E7000065
:1031F000FC05002004ED00E02DE9F0478146099E22
:10320000089D0A9C9A46521E206B00EB820020F01B
:103210000708002700290CD0002023180A5C83F837
:1032200034200A5C12B1401C1028F6D384F8437095
:1032300001E084F83470072D00D30625E56265644B
:10324000A764201D00F053F904F1180000F04FF9B5
:103250002461C5F10700A0616462E76484F85070DE
:1032600052464946404600F003F92060002E00D047
:103270003460BDE8F087000070B500240F4D04EB0A
:10328000840005EB800000F027F9641C072CF6D3BE
:103290000B4800F021F90B4800F01EF90A4800F035
:1032A0001BF90A4800F018F9094800F015F9094817
:1032B000034941631431816370BD0000FC050020A7
:1032C000880600209C060020B0060020C4060020CE
:1032D000D80600201800002010B4144900E0114660
:1032E0000A688242FBD34B6803EB010C844503D18F
:1032F00040681844486008460C68D0F804C00CEBDD
:103300000003A3420CD10A4B1B689A4206D05268B4
:10331000624442600A681268026002E0036000E0F2
:103320000260814200D0086010BC70476C00002031
:10333000540000200749486B0068002805D0486BFE
:10334000C068C0684068886270474FF0FF3088628C
:1033500070470000180000200A484068B0F1FF3FA5
:1033600007D0502080F31188BFF34F8FBFF36F8FCA
:10337000FEE7502080F31188BFF34F8FBFF36F8FAC
:10338000FEE70000740000202DE9F041054600260C
:1033900000F07AF9344F386808B9FFF7F1FE786920
:1033A000054251D19DB1083515F0070F0FD005F03A
:1033B0000700C0F10800054415F0070F07D05020A2
:1033C00080F31188BFF34F8FBFF36F8FFEE7002D9F
:1033D0003AD07868854237D824490846046801E025
:1033E000214604466068A84202D220680028F7D12E
:1033F0003868844228D0086800F108062068086010
:103400006068411B10290FD9601910F0070F07D011
:10341000502080F31188BFF34F8FBFF36F8FFEE70B
:1034200041606560FFF758FF61687868401A78600E
:10343000BA68904200D2B8607869084360600020A2
:103440002060F868401CF86000F0A8FA16F0070F3A
:1034500007D0502080F31188BFF34F8FBFF36F8FD9
:10346000FEE73046BDE8F081540000206C000020EB
:10347000001F4FF080730360001F21F00101016005
:10348000001F0549016014380260001F6FF002013F
:103490000160203870470000593300080169436813
:1034A00082689A60836842685A604A68824201D1A1
:1034B00082684A60002202610868401E086008684D
:1034C00070470000034B036003F154000860802044
:1034D000106070478000002000F1080141604FF04B
:1034E000FF328260C16001610021016070470021EC
:1034F0000161704742684A6093688B6093685960C5
:10350000916008610168491C01607047502080F398
:103510001188BFF34F8FBFF36F8F0A494868401C73
:10352000486001280CD10848006810F0FF0F07D050
:10353000502080F31188BFF34F8FBFF36F8FFEE7EA
:10354000704700007400002004ED00E0094948685D
:10355000002806D0401E4860002801D180F3118861
:103560007047502080F31188BFF34F8FBFF36F8FE8
:10357000FEE700007400002070B500282AD0A0F1FA
:103580000804154D60686969084207D1502080F32E
:103590001188BFF34F8FBFF36F8FFEE722683AB1F8
:1035A000502080F31188BFF34F8FBFF36F8FFEE77A
:1035B0008843606000F068F8606869680844686083
:1035C0002046FFF789FE2869401C2861BDE870404D
:1035D00000F0E4B970BD0000540000204FF0E0207E
:1035E00000210161816105494FF47A720968B1FBDC
:1035F000F2F1491E4161072101617047140000206A
:1036000010B586B000240594049403AA04A905A863
:10361000FFF758FF05980499019102900023009448
:1036200015A11748039A00F01FF91649C86208B19E
:10363000012000E0002001280AD0B0F1FF3F19D19D
:10364000502080F31188BFF34F8FBFF36F8FFEE7D9
:10365000502080F31188BFF34F8FBFF36F8F4FF06F
:10366000FF30886201204861CC6006B0BDE81040A0
:1036700000F042B806B010BD49444C4500000000BF
:10368000D1310008180000200248016B491C016379
:103690007047000018000020154A106B002802D067
:1036A0000120D06170470020D0611069B0FA80F02D
:1036B000C0F11F000F4900EB800051F8203073B1BA
:1036C00001EB800041684968416000F108039942BC
:1036D00001D1496841604068C0681060704750205F
:1036E00080F31188BFF34F8FBFF36F8FFEE70000A9
:1036F00018000020FC05002010B582B03848016891
:10370000384A914207D1502080F31188BFF34F8F80
:10371000BFF36F8FFEE700683349884207D150201E
:1037200080F31188BFF34F8FBFF36F8FFEE72F49F0
:1037300008780190FF200870087800909DF800003C
:103740009DF8002000F0F000904207D0502080F358
:103750001188BFF34F8FBFF36F8FFEE79DF8000016
:10376000234C00F0500020700720A0609DF800005E
:1037700010F0800F0BD0A068401EA0609DF80000E4
:10378000400000909DF8000010F0800FF3D1A06879
:10379000032807D0502080F31188BFF34F8FBFF369
:1037A0006F8FFEE74FF44070A060019808701148D9
:1037B000016841F470010160016841F070410160ED
:1037C000FFF70CFF00206060FCF752FD0A4801681B
:1037D00041F040410160FCF737FD02B0002010BD10
:1037E00000ED00E071C20F4170C20F4100E400E043
:1037F0007400002020ED00E034EF00E02DE9F04FF0
:1038000085B081460F9F0E9E8A4690469B464FEAA2
:103810008800FFF7B9FD054628000AD05420FFF7BD
:10382000B3FD04460CB1256304E02846FFF7A4FE6F
:1038300000E000249CB1002084F8510003905B4616
:10384000424651460197009602944846FFF7D4FC41
:103850002046FFF711FC05B00120BDE8F08F05B050
:103860004FF0FF30BDE8F08F70B586B00646DDF84A
:1038700028C00C9C0B98002816D0ECB15425049558
:103880002063022084F85100002005AD0390CDF89C
:1038900000C0019502943046FFF7AEFC2046FFF7CA
:1038A000EBFB059806B070BD502080F31188BFF384
:1038B0004F8FBFF36F8FFEE7502080F31188BFF367
:1038C0004F8FBFF36F8FFEE72DE9F0470026314F92
:1038D000386B002805D0B869401CB8613046BDE897
:1038E000F087F868451CFD609DB9786B006838B1B9
:1038F000502080F31188BFF34F8FBFF36F8FFEE727
:10390000786BB96B7963B863386A401C3862FFF72B
:1039100011FDB86ADFF8808085420FD34FF00109AE
:10392000786B006838B1786BC068C468606885429D
:1039300012D2B86202E04FF0FF30B8623868C06A55
:1039400000EB800058F82000012800D90126F86912
:103950000028C3D00126C1E7201DFFF79FFDA06A04
:1039600018B104F11800FFF799FDE16A3A6909FA04
:1039700001F01043386101EB810008EB8000211D4C
:10398000FFF7B8FDE06A3968C96A8842C8D30126E2
:10399000C6E7000018000020FC0500202DE9F047D4
:1039A0000024A0462D4D286B002807D0FFF7AEFD60
:1039B000286B401E2863286B40B149E0502080F3FB
:1039C0001188BFF34F8FBFF36F8FFEE7A868002801
:1039D0003ED0234F3868012600B3A7F1B409F86838
:1039E000C46804F11800FFF759FD201DFFF756FDCC
:1039F000E06A2A6906FA00F11143296100EB8000B0
:103A000009EB8000211DFFF775FDE06A2968C96A8E
:103A1000884200D3EE6138680028E0D10CB1FFF78E
:103A200089FCAC6944B1FFF74FFF00B1EE61641E41
:103A3000002CF8D10020A861E86948B14FF00108D6
:103A400008494FF080500860BFF34F8FBFF36F8F6E
:103A5000FFF77CFD4046BDE8F0870000180000201D
:103A6000B006002004ED00E04FF04070E1EE100AD7
:103A700070470000CC3A00085129000800000000FF
:103A800000000000800000000000000000000000B6
:103A9000D83A00088129000800000000000000005A
:103AA000800000000000000000000000000610166A
:103AB00000061016000000000000000001020304D0
:103AC000060708090000000001020304646566613E
:103AD000756C745461736B006D795461736B4C65D4
:103AE0006442757A00000000083B000800000020D6
:103AF00080000000C4010008883B0008800000200E
:103B0000D0480000E00100080000000000000000B4
:103B10000100000010000000000000000024F4007C
:103B20000000000000000000000000000000000095
:103B30000000000000000000000000000000000085
:103B40000000000000000000000000000000000075
:103B50000000000000000000000000000000000065
:103B60000000000000000000000000000000000055
:103B70000000000000000000000000000000000045
:083B8000AAAAAAAA0000000095
:040000050800018965
:00000001FF
